{
  "_format": "hh-sol-artifact-1",
  "contractName": "KanessaNFT",
  "sourceName": "contracts/Kanessa.sol",
  "abi": [
    {
      "inputs": [],
      "stateMutability": "nonpayable",
      "type": "constructor"
    },
    {
      "anonymous": false,
      "inputs": [
        {
          "indexed": true,
          "internalType": "address",
          "name": "owner",
          "type": "address"
        },
        {
          "indexed": true,
          "internalType": "address",
          "name": "approved",
          "type": "address"
        },
        {
          "indexed": true,
          "internalType": "uint256",
          "name": "tokenId",
          "type": "uint256"
        }
      ],
      "name": "Approval",
      "type": "event"
    },
    {
      "anonymous": false,
      "inputs": [
        {
          "indexed": true,
          "internalType": "address",
          "name": "owner",
          "type": "address"
        },
        {
          "indexed": true,
          "internalType": "address",
          "name": "operator",
          "type": "address"
        },
        {
          "indexed": false,
          "internalType": "bool",
          "name": "approved",
          "type": "bool"
        }
      ],
      "name": "ApprovalForAll",
      "type": "event"
    },
    {
      "anonymous": false,
      "inputs": [
        {
          "indexed": false,
          "internalType": "bool",
          "name": "enableSale",
          "type": "bool"
        }
      ],
      "name": "EnableSaleChanged",
      "type": "event"
    },
    {
      "anonymous": false,
      "inputs": [
        {
          "indexed": false,
          "internalType": "uint256",
          "name": "_limit",
          "type": "uint256"
        }
      ],
      "name": "LimitPerWalletChanged",
      "type": "event"
    },
    {
      "anonymous": false,
      "inputs": [
        {
          "indexed": false,
          "internalType": "uint256",
          "name": "_maxSupply",
          "type": "uint256"
        }
      ],
      "name": "MaxSupplyChanged",
      "type": "event"
    },
    {
      "anonymous": false,
      "inputs": [
        {
          "indexed": true,
          "internalType": "address",
          "name": "_to",
          "type": "address"
        },
        {
          "indexed": false,
          "internalType": "uint256",
          "name": "_number",
          "type": "uint256"
        }
      ],
      "name": "MintNFT",
      "type": "event"
    },
    {
      "anonymous": false,
      "inputs": [
        {
          "indexed": true,
          "internalType": "address",
          "name": "previousOwner",
          "type": "address"
        },
        {
          "indexed": true,
          "internalType": "address",
          "name": "newOwner",
          "type": "address"
        }
      ],
      "name": "OwnershipTransferred",
      "type": "event"
    },
    {
      "anonymous": false,
      "inputs": [
        {
          "indexed": true,
          "internalType": "address",
          "name": "from",
          "type": "address"
        },
        {
          "indexed": true,
          "internalType": "address",
          "name": "to",
          "type": "address"
        },
        {
          "indexed": true,
          "internalType": "uint256",
          "name": "tokenId",
          "type": "uint256"
        }
      ],
      "name": "Transfer",
      "type": "event"
    },
    {
      "anonymous": false,
      "inputs": [
        {
          "indexed": false,
          "internalType": "bool",
          "name": "isWhiteList",
          "type": "bool"
        }
      ],
      "name": "WhitelistModeChanged",
      "type": "event"
    },
    {
      "inputs": [
        {
          "internalType": "address",
          "name": "to",
          "type": "address"
        },
        {
          "internalType": "uint256",
          "name": "tokenId",
          "type": "uint256"
        }
      ],
      "name": "approve",
      "outputs": [],
      "stateMutability": "nonpayable",
      "type": "function"
    },
    {
      "inputs": [
        {
          "internalType": "address",
          "name": "owner",
          "type": "address"
        }
      ],
      "name": "balanceOf",
      "outputs": [
        {
          "internalType": "uint256",
          "name": "",
          "type": "uint256"
        }
      ],
      "stateMutability": "view",
      "type": "function"
    },
    {
      "inputs": [],
      "name": "count",
      "outputs": [
        {
          "internalType": "uint256",
          "name": "",
          "type": "uint256"
        }
      ],
      "stateMutability": "view",
      "type": "function"
    },
    {
      "inputs": [
        {
          "internalType": "uint256",
          "name": "tokenId",
          "type": "uint256"
        }
      ],
      "name": "getApproved",
      "outputs": [
        {
          "internalType": "address",
          "name": "",
          "type": "address"
        }
      ],
      "stateMutability": "view",
      "type": "function"
    },
    {
      "inputs": [],
      "name": "getEnableSale",
      "outputs": [
        {
          "internalType": "bool",
          "name": "",
          "type": "bool"
        }
      ],
      "stateMutability": "view",
      "type": "function"
    },
    {
      "inputs": [],
      "name": "getLimitPerWallet",
      "outputs": [
        {
          "internalType": "uint256",
          "name": "",
          "type": "uint256"
        }
      ],
      "stateMutability": "view",
      "type": "function"
    },
    {
      "inputs": [
        {
          "internalType": "address",
          "name": "owner",
          "type": "address"
        },
        {
          "internalType": "address",
          "name": "operator",
          "type": "address"
        }
      ],
      "name": "isApprovedForAll",
      "outputs": [
        {
          "internalType": "bool",
          "name": "",
          "type": "bool"
        }
      ],
      "stateMutability": "view",
      "type": "function"
    },
    {
      "inputs": [
        {
          "internalType": "address",
          "name": "to",
          "type": "address"
        },
        {
          "internalType": "uint256",
          "name": "number",
          "type": "uint256"
        }
      ],
      "name": "mintAdmin",
      "outputs": [],
      "stateMutability": "nonpayable",
      "type": "function"
    },
    {
      "inputs": [],
      "name": "name",
      "outputs": [
        {
          "internalType": "string",
          "name": "",
          "type": "string"
        }
      ],
      "stateMutability": "view",
      "type": "function"
    },
    {
      "inputs": [],
      "name": "owner",
      "outputs": [
        {
          "internalType": "address",
          "name": "",
          "type": "address"
        }
      ],
      "stateMutability": "view",
      "type": "function"
    },
    {
      "inputs": [
        {
          "internalType": "uint256",
          "name": "tokenId",
          "type": "uint256"
        }
      ],
      "name": "ownerOf",
      "outputs": [
        {
          "internalType": "address",
          "name": "",
          "type": "address"
        }
      ],
      "stateMutability": "view",
      "type": "function"
    },
    {
      "inputs": [
        {
          "internalType": "address",
          "name": "recipiant",
          "type": "address"
        },
        {
          "internalType": "uint256",
          "name": "number",
          "type": "uint256"
        }
      ],
      "name": "payToMint",
      "outputs": [],
      "stateMutability": "payable",
      "type": "function"
    },
    {
      "inputs": [
        {
          "internalType": "address",
          "name": "recipiant",
          "type": "address"
        },
        {
          "internalType": "bytes32[]",
          "name": "proof",
          "type": "bytes32[]"
        },
        {
          "internalType": "uint256",
          "name": "number",
          "type": "uint256"
        }
      ],
      "name": "payToWhiteMint",
      "outputs": [],
      "stateMutability": "payable",
      "type": "function"
    },
    {
      "inputs": [],
      "name": "price",
      "outputs": [
        {
          "internalType": "uint256",
          "name": "",
          "type": "uint256"
        }
      ],
      "stateMutability": "view",
      "type": "function"
    },
    {
      "inputs": [],
      "name": "renounceOwnership",
      "outputs": [],
      "stateMutability": "nonpayable",
      "type": "function"
    },
    {
      "inputs": [
        {
          "internalType": "address",
          "name": "from",
          "type": "address"
        },
        {
          "internalType": "address",
          "name": "to",
          "type": "address"
        },
        {
          "internalType": "uint256",
          "name": "tokenId",
          "type": "uint256"
        }
      ],
      "name": "safeTransferFrom",
      "outputs": [],
      "stateMutability": "nonpayable",
      "type": "function"
    },
    {
      "inputs": [
        {
          "internalType": "address",
          "name": "from",
          "type": "address"
        },
        {
          "internalType": "address",
          "name": "to",
          "type": "address"
        },
        {
          "internalType": "uint256",
          "name": "tokenId",
          "type": "uint256"
        },
        {
          "internalType": "bytes",
          "name": "_data",
          "type": "bytes"
        }
      ],
      "name": "safeTransferFrom",
      "outputs": [],
      "stateMutability": "nonpayable",
      "type": "function"
    },
    {
      "inputs": [
        {
          "internalType": "address",
          "name": "operator",
          "type": "address"
        },
        {
          "internalType": "bool",
          "name": "approved",
          "type": "bool"
        }
      ],
      "name": "setApprovalForAll",
      "outputs": [],
      "stateMutability": "nonpayable",
      "type": "function"
    },
    {
      "inputs": [
        {
          "internalType": "bool",
          "name": "_enableSale",
          "type": "bool"
        }
      ],
      "name": "setEnableSale",
      "outputs": [],
      "stateMutability": "nonpayable",
      "type": "function"
    },
    {
      "inputs": [
        {
          "internalType": "uint256",
          "name": "_limit",
          "type": "uint256"
        }
      ],
      "name": "setLimitPerWallet",
      "outputs": [],
      "stateMutability": "nonpayable",
      "type": "function"
    },
    {
      "inputs": [
        {
          "internalType": "uint256",
          "name": "_max",
          "type": "uint256"
        }
      ],
      "name": "setMaxSupply",
      "outputs": [],
      "stateMutability": "nonpayable",
      "type": "function"
    },
    {
      "inputs": [
        {
          "internalType": "uint256",
          "name": "_presalePrice",
          "type": "uint256"
        }
      ],
      "name": "setPresalePrice",
      "outputs": [],
      "stateMutability": "nonpayable",
      "type": "function"
    },
    {
      "inputs": [
        {
          "internalType": "uint256",
          "name": "_publicsalePrice",
          "type": "uint256"
        }
      ],
      "name": "setPublicsalePrice",
      "outputs": [],
      "stateMutability": "nonpayable",
      "type": "function"
    },
    {
      "inputs": [
        {
          "internalType": "bool",
          "name": "mode",
          "type": "bool"
        }
      ],
      "name": "setWhiteListMode",
      "outputs": [],
      "stateMutability": "nonpayable",
      "type": "function"
    },
    {
      "inputs": [
        {
          "internalType": "bytes32",
          "name": "root",
          "type": "bytes32"
        }
      ],
      "name": "setWhitelistRoot",
      "outputs": [],
      "stateMutability": "nonpayable",
      "type": "function"
    },
    {
      "inputs": [
        {
          "internalType": "bytes4",
          "name": "interfaceId",
          "type": "bytes4"
        }
      ],
      "name": "supportsInterface",
      "outputs": [
        {
          "internalType": "bool",
          "name": "",
          "type": "bool"
        }
      ],
      "stateMutability": "view",
      "type": "function"
    },
    {
      "inputs": [],
      "name": "symbol",
      "outputs": [
        {
          "internalType": "string",
          "name": "",
          "type": "string"
        }
      ],
      "stateMutability": "view",
      "type": "function"
    },
    {
      "inputs": [
        {
          "internalType": "uint256",
          "name": "tokenId",
          "type": "uint256"
        }
      ],
      "name": "tokenURI",
      "outputs": [
        {
          "internalType": "string",
          "name": "",
          "type": "string"
        }
      ],
      "stateMutability": "view",
      "type": "function"
    },
    {
      "inputs": [],
      "name": "totalCount",
      "outputs": [
        {
          "internalType": "uint256",
          "name": "",
          "type": "uint256"
        }
      ],
      "stateMutability": "view",
      "type": "function"
    },
    {
      "inputs": [],
      "name": "totalSupply",
      "outputs": [
        {
          "internalType": "uint256",
          "name": "",
          "type": "uint256"
        }
      ],
      "stateMutability": "view",
      "type": "function"
    },
    {
      "inputs": [
        {
          "internalType": "address",
          "name": "from",
          "type": "address"
        },
        {
          "internalType": "address",
          "name": "to",
          "type": "address"
        },
        {
          "internalType": "uint256",
          "name": "tokenId",
          "type": "uint256"
        }
      ],
      "name": "transferFrom",
      "outputs": [],
      "stateMutability": "nonpayable",
      "type": "function"
    },
    {
      "inputs": [
        {
          "internalType": "address",
          "name": "newOwner",
          "type": "address"
        }
      ],
      "name": "transferOwnership",
      "outputs": [],
      "stateMutability": "nonpayable",
      "type": "function"
    },
    {
      "inputs": [
        {
          "internalType": "bytes32",
          "name": "leaf",
          "type": "bytes32"
        },
        {
          "internalType": "bytes32[]",
          "name": "proof",
          "type": "bytes32[]"
        }
      ],
      "name": "verifyWhitelist",
      "outputs": [
        {
          "internalType": "bool",
          "name": "",
          "type": "bool"
        }
      ],
      "stateMutability": "view",
      "type": "function"
    },
    {
      "inputs": [],
      "name": "whitelistMode",
      "outputs": [
        {
          "internalType": "bool",
          "name": "",
          "type": "bool"
        }
      ],
      "stateMutability": "view",
      "type": "function"
    },
    {
      "inputs": [],
      "name": "whitelistRoot",
      "outputs": [
        {
          "internalType": "bytes32",
          "name": "",
          "type": "bytes32"
        }
      ],
      "stateMutability": "view",
      "type": "function"
    },
    {
      "inputs": [],
      "name": "withdraw",
      "outputs": [],
      "stateMutability": "nonpayable",
      "type": "function"
    }
  ],
  "bytecode": "0x60806040526703782dace9d90000600a55670429d069189e0000600b556000600d60006101000a81548160ff0219169083151502179055506103e8600e556005600f553480156200004f57600080fd5b506040518060400160405280601d81526020017f46696775726120416d617265202d20506c75732053697a65204c6164790000008152506040518060400160405280600381526020017f50534c00000000000000000000000000000000000000000000000000000000008152508160009080519060200190620000d49291906200025b565b508060019080519060200190620000ed9291906200025b565b50505062000110620001046200018d60201b60201c565b6200019560201b60201c565b7f7036c18b7148a5450c499d5c83cf6dac05902701bbbca399f37345095ecf0dcb60001b6009819055506040518060800160405280605681526020016200490960569139600c90805190602001906200016b9291906200025b565b506001600860006101000a81548160ff02191690831515021790555062000370565b600033905090565b6000600660009054906101000a900473ffffffffffffffffffffffffffffffffffffffff16905081600660006101000a81548173ffffffffffffffffffffffffffffffffffffffff021916908373ffffffffffffffffffffffffffffffffffffffff1602179055508173ffffffffffffffffffffffffffffffffffffffff168173ffffffffffffffffffffffffffffffffffffffff167f8be0079c531659141344cd1fd0a4f28419497f9722a3daafe3b4186f6b6457e060405160405180910390a35050565b82805462000269906200030b565b90600052602060002090601f0160209004810192826200028d5760008555620002d9565b82601f10620002a857805160ff1916838001178555620002d9565b82800160010185558215620002d9579182015b82811115620002d8578251825591602001919060010190620002bb565b5b509050620002e89190620002ec565b5090565b5b8082111562000307576000816000905550600101620002ed565b5090565b600060028204905060018216806200032457607f821691505b602082108114156200033b576200033a62000341565b5b50919050565b7f4e487b7100000000000000000000000000000000000000000000000000000000600052602260045260246000fd5b61458980620003806000396000f3fe60806040526004361061020f5760003560e01c806363c766b911610118578063a035b1fe116100a0578063c3a719991161006f578063c3a7199914610747578063c87b56dd14610770578063e985e9c5146107ad578063f2fde38b146107ea578063f5aa406d146108135761020f565b8063a035b1fe146106a1578063a22cb465146106cc578063b85c64c8146106f5578063b88d4fde1461071e5761020f565b806370c757ec116100e757806370c757ec146105e0578063715018a61461060b57806382562177146106225780638da5cb5b1461064b57806395d89b41146106765761020f565b806363c766b91461053557806365b31a661461055e5780636f8b44b01461057a57806370a08231146105a35761020f565b8063269004a21161019b5780633735ba4f1161016a5780633735ba4f14610462578063386bfc981461048d5780633ccfd60b146104b857806342842e0e146104cf5780636352211e146104f85761020f565b8063269004a2146103a6578063329ea90d146103d157806334eafb111461040e5780633549345e146104395761020f565b8063095ea7b3116101e2578063095ea7b3146102e457806318160ddd1461030d5780631aa6fa0b146103385780631e23645f1461035457806323b872dd1461037d5761020f565b806301ffc9a71461021457806306661abd1461025157806306fdde031461027c578063081812fc146102a7575b600080fd5b34801561022057600080fd5b5061023b600480360381019061023691906130e9565b61083c565b60405161024891906136dc565b60405180910390f35b34801561025d57600080fd5b5061026661091e565b6040516102739190613a54565b60405180910390f35b34801561028857600080fd5b5061029161092f565b60405161029e9190613712565b60405180910390f35b3480156102b357600080fd5b506102ce60048036038101906102c9919061313b565b6109c1565b6040516102db9190613675565b60405180910390f35b3480156102f057600080fd5b5061030b60048036038101906103069190613007565b610a46565b005b34801561031957600080fd5b50610322610b5e565b60405161032f9190613a54565b60405180910390f35b610352600480360381019061034d9190613007565b610b68565b005b34801561036057600080fd5b5061037b60048036038101906103769190613043565b610d9f565b005b34801561038957600080fd5b506103a4600480360381019061039f9190612e9a565b610e6f565b005b3480156103b257600080fd5b506103bb610ecf565b6040516103c89190613a54565b60405180910390f35b3480156103dd57600080fd5b506103f860048036038101906103f39190613095565b610ed9565b60405161040591906136dc565b60405180910390f35b34801561041a57600080fd5b50610423610fb7565b6040516104309190613a54565b60405180910390f35b34801561044557600080fd5b50610460600480360381019061045b919061313b565b610fc8565b005b34801561046e57600080fd5b5061047761104e565b60405161048491906136dc565b60405180910390f35b34801561049957600080fd5b506104a2611065565b6040516104af91906136f7565b60405180910390f35b3480156104c457600080fd5b506104cd61106f565b005b3480156104db57600080fd5b506104f660048036038101906104f19190612e9a565b611134565b005b34801561050457600080fd5b5061051f600480360381019061051a919061313b565b611154565b60405161052c9190613675565b60405180910390f35b34801561054157600080fd5b5061055c6004803603810190610557919061313b565b611206565b005b61057860048036038101906105739190612f64565b6112c5565b005b34801561058657600080fd5b506105a1600480360381019061059c919061313b565b611553565b005b3480156105af57600080fd5b506105ca60048036038101906105c59190612e35565b611612565b6040516105d79190613a54565b60405180910390f35b3480156105ec57600080fd5b506105f56116ca565b60405161060291906136dc565b60405180910390f35b34801561061757600080fd5b506106206116e1565b005b34801561062e57600080fd5b5061064960048036038101906106449190613043565b611769565b005b34801561065757600080fd5b50610660611848565b60405161066d9190613675565b60405180910390f35b34801561068257600080fd5b5061068b611872565b6040516106989190613712565b60405180910390f35b3480156106ad57600080fd5b506106b6611904565b6040516106c39190613a54565b60405180910390f35b3480156106d857600080fd5b506106f360048036038101906106ee9190612fcb565b61192e565b005b34801561070157600080fd5b5061071c6004803603810190610717919061313b565b611944565b005b34801561072a57600080fd5b5061074560048036038101906107409190612ee9565b6119ca565b005b34801561075357600080fd5b5061076e60048036038101906107699190613007565b611a2c565b005b34801561077c57600080fd5b506107976004803603810190610792919061313b565b611beb565b6040516107a49190613712565b60405180910390f35b3480156107b957600080fd5b506107d460048036038101906107cf9190612e5e565b611c92565b6040516107e191906136dc565b60405180910390f35b3480156107f657600080fd5b50610811600480360381019061080c9190612e35565b611d26565b005b34801561081f57600080fd5b5061083a6004803603810190610835919061306c565b611e1e565b005b60007f80ac58cd000000000000000000000000000000000000000000000000000000007bffffffffffffffffffffffffffffffffffffffffffffffffffffffff1916827bffffffffffffffffffffffffffffffffffffffffffffffffffffffff1916148061090757507f5b5e139f000000000000000000000000000000000000000000000000000000007bffffffffffffffffffffffffffffffffffffffffffffffffffffffff1916827bffffffffffffffffffffffffffffffffffffffffffffffffffffffff1916145b80610917575061091682611ea4565b5b9050919050565b600061092a6007611f0e565b905090565b60606000805461093e90613d09565b80601f016020809104026020016040519081016040528092919081815260200182805461096a90613d09565b80156109b75780601f1061098c576101008083540402835291602001916109b7565b820191906000526020600020905b81548152906001019060200180831161099a57829003601f168201915b5050505050905090565b60006109cc82611f1c565b610a0b576040517f08c379a0000000000000000000000000000000000000000000000000000000008152600401610a0290613934565b60405180910390fd5b6004600083815260200190815260200160002060009054906101000a900473ffffffffffffffffffffffffffffffffffffffff169050919050565b6000610a5182611154565b90508073ffffffffffffffffffffffffffffffffffffffff168373ffffffffffffffffffffffffffffffffffffffff161415610ac2576040517f08c379a0000000000000000000000000000000000000000000000000000000008152600401610ab9906139b4565b60405180910390fd5b8073ffffffffffffffffffffffffffffffffffffffff16610ae1611f88565b73ffffffffffffffffffffffffffffffffffffffff161480610b105750610b0f81610b0a611f88565b611c92565b5b610b4f576040517f08c379a0000000000000000000000000000000000000000000000000000000008152600401610b4690613854565b60405180910390fd5b610b598383611f90565b505050565b6000600e54905090565b600d60009054906101000a900460ff16610bb7576040517f08c379a0000000000000000000000000000000000000000000000000000000008152600401610bae90613834565b60405180910390fd5b600860009054906101000a900460ff1615610c07576040517f08c379a0000000000000000000000000000000000000000000000000000000008152600401610bfe906139d4565b60405180910390fd5b80610c10611904565b610c1a9190613bbb565b341015610c5c576040517f08c379a0000000000000000000000000000000000000000000000000000000008152600401610c5390613954565b60405180910390fd5b600e5481610c68610b5e565b610c729190613b34565b1115610cb3576040517f08c379a0000000000000000000000000000000000000000000000000000000008152600401610caa906138f4565b60405180910390fd5b600f5481610cc084611612565b610cca9190613b34565b1115610d0b576040517f08c379a0000000000000000000000000000000000000000000000000000000008152600401610d0290613734565b60405180910390fd5b60005b81811015610d4c57610d206007612049565b6000610d2c6007611f0e565b9050610d38848261205f565b508080610d4490613d6c565b915050610d0e565b508173ffffffffffffffffffffffffffffffffffffffff167f1f89f147a58d1673945cf416187db98efc8208408c011b91887acd59fd8523c382604051610d939190613a54565b60405180910390a25050565b610da7611f88565b73ffffffffffffffffffffffffffffffffffffffff16610dc5611848565b73ffffffffffffffffffffffffffffffffffffffff1614610e1b576040517f08c379a0000000000000000000000000000000000000000000000000000000008152600401610e1290613974565b60405180910390fd5b80600860006101000a81548160ff0219169083151502179055507f9094b093988cc7e117334d86adc047e84bbc414f34eb87fe4dd14fc3f623733d81604051610e6491906136dc565b60405180910390a150565b610e80610e7a611f88565b82612239565b610ebf576040517f08c379a0000000000000000000000000000000000000000000000000000000008152600401610eb6906139f4565b60405180910390fd5b610eca838383612317565b505050565b6000600f54905090565b60008083905060005b8351811015610fa8576000848281518110610f26577f4e487b7100000000000000000000000000000000000000000000000000000000600052603260045260246000fd5b6020026020010151905080831015610f68578281604051602001610f4b92919061361a565b604051602081830303815290604052805190602001209250610f94565b8083604051602001610f7b92919061361a565b6040516020818303038152906040528051906020012092505b508080610fa090613d6c565b915050610ee2565b50600954811491505092915050565b6000610fc36007611f0e565b905090565b610fd0611f88565b73ffffffffffffffffffffffffffffffffffffffff16610fee611848565b73ffffffffffffffffffffffffffffffffffffffff1614611044576040517f08c379a000000000000000000000000000000000000000000000000000000000815260040161103b90613974565b60405180910390fd5b80600a8190555050565b6000600d60009054906101000a900460ff16905090565b6000600954905090565b611077611f88565b73ffffffffffffffffffffffffffffffffffffffff16611095611848565b73ffffffffffffffffffffffffffffffffffffffff16146110eb576040517f08c379a00000000000000000000000000000000000000000000000000000000081526004016110e290613974565b60405180910390fd5b3373ffffffffffffffffffffffffffffffffffffffff166108fc479081150290604051600060405180830381858888f19350505050158015611131573d6000803e3d6000fd5b50565b61114f838383604051806020016040528060008152506119ca565b505050565b6000806002600084815260200190815260200160002060009054906101000a900473ffffffffffffffffffffffffffffffffffffffff169050600073ffffffffffffffffffffffffffffffffffffffff168173ffffffffffffffffffffffffffffffffffffffff1614156111fd576040517f08c379a00000000000000000000000000000000000000000000000000000000081526004016111f4906138b4565b60405180910390fd5b80915050919050565b61120e611f88565b73ffffffffffffffffffffffffffffffffffffffff1661122c611848565b73ffffffffffffffffffffffffffffffffffffffff1614611282576040517f08c379a000000000000000000000000000000000000000000000000000000000815260040161127990613974565b60405180910390fd5b80600f819055507fe0b266339905078959f2a9dbe97d2e407f6fa9ed312450a2b262f37e1ace93eb600f546040516112ba9190613a54565b60405180910390a150565b600d60009054906101000a900460ff16611314576040517f08c379a000000000000000000000000000000000000000000000000000000000815260040161130b90613834565b60405180910390fd5b600860009054906101000a900460ff16611363576040517f08c379a000000000000000000000000000000000000000000000000000000000815260040161135a90613a14565b60405180910390fd5b60006113776113718561257e565b84610ed9565b9050806113b9576040517f08c379a00000000000000000000000000000000000000000000000000000000081526004016113b090613874565b60405180910390fd5b600e54826113c5610b5e565b6113cf9190613b34565b1115611410576040517f08c379a0000000000000000000000000000000000000000000000000000000008152600401611407906138f4565b60405180910390fd5b600f548261141d86611612565b6114279190613b34565b1115611468576040517f08c379a000000000000000000000000000000000000000000000000000000000815260040161145f90613734565b60405180910390fd5b81611471611904565b61147b9190613bbb565b3410156114bd576040517f08c379a00000000000000000000000000000000000000000000000000000000081526004016114b490613954565b60405180910390fd5b60005b828110156114fe576114d26007612049565b60006114de6007611f0e565b90506114ea868261205f565b5080806114f690613d6c565b9150506114c0565b508373ffffffffffffffffffffffffffffffffffffffff167f1f89f147a58d1673945cf416187db98efc8208408c011b91887acd59fd8523c3836040516115459190613a54565b60405180910390a250505050565b61155b611f88565b73ffffffffffffffffffffffffffffffffffffffff16611579611848565b73ffffffffffffffffffffffffffffffffffffffff16146115cf576040517f08c379a00000000000000000000000000000000000000000000000000000000081526004016115c690613974565b60405180910390fd5b80600e819055507f28a10a2e0b5582da7164754cb994f6214b8af6aa7f7e003305fbc09e7106c513600e546040516116079190613a54565b60405180910390a150565b60008073ffffffffffffffffffffffffffffffffffffffff168273ffffffffffffffffffffffffffffffffffffffff161415611683576040517f08c379a000000000000000000000000000000000000000000000000000000000815260040161167a90613894565b60405180910390fd5b600360008373ffffffffffffffffffffffffffffffffffffffff1673ffffffffffffffffffffffffffffffffffffffff168152602001908152602001600020549050919050565b6000600860009054906101000a900460ff16905090565b6116e9611f88565b73ffffffffffffffffffffffffffffffffffffffff16611707611848565b73ffffffffffffffffffffffffffffffffffffffff161461175d576040517f08c379a000000000000000000000000000000000000000000000000000000000815260040161175490613974565b60405180910390fd5b61176760006125ae565b565b611771611f88565b73ffffffffffffffffffffffffffffffffffffffff1661178f611848565b73ffffffffffffffffffffffffffffffffffffffff16146117e5576040517f08c379a00000000000000000000000000000000000000000000000000000000081526004016117dc90613974565b60405180910390fd5b80600d60006101000a81548160ff0219169083151502179055507fbb3b38dc7072e12250e00261ff517ab5fe3bb4975e91ab242bac048b7090ba20600d60009054906101000a900460ff1660405161183d91906136dc565b60405180910390a150565b6000600660009054906101000a900473ffffffffffffffffffffffffffffffffffffffff16905090565b60606001805461188190613d09565b80601f01602080910402602001604051908101604052809291908181526020018280546118ad90613d09565b80156118fa5780601f106118cf576101008083540402835291602001916118fa565b820191906000526020600020905b8154815290600101906020018083116118dd57829003601f168201915b5050505050905090565b6000600860009054906101000a900460ff161561192557600a54905061192b565b600b5490505b90565b611940611939611f88565b8383612674565b5050565b61194c611f88565b73ffffffffffffffffffffffffffffffffffffffff1661196a611848565b73ffffffffffffffffffffffffffffffffffffffff16146119c0576040517f08c379a00000000000000000000000000000000000000000000000000000000081526004016119b790613974565b60405180910390fd5b80600b8190555050565b6119db6119d5611f88565b83612239565b611a1a576040517f08c379a0000000000000000000000000000000000000000000000000000000008152600401611a11906139f4565b60405180910390fd5b611a26848484846127e1565b50505050565b611a34611f88565b73ffffffffffffffffffffffffffffffffffffffff16611a52611848565b73ffffffffffffffffffffffffffffffffffffffff1614611aa8576040517f08c379a0000000000000000000000000000000000000000000000000000000008152600401611a9f90613974565b60405180910390fd5b600e5481611ab4610b5e565b611abe9190613b34565b1115611aff576040517f08c379a0000000000000000000000000000000000000000000000000000000008152600401611af690613914565b60405180910390fd5b600f5481611b0c84611612565b611b169190613b34565b1115611b57576040517f08c379a0000000000000000000000000000000000000000000000000000000008152600401611b4e90613a34565b60405180910390fd5b60005b81811015611b9857611b6c6007612049565b6000611b786007611f0e565b9050611b84848261283d565b508080611b9090613d6c565b915050611b5a565b508173ffffffffffffffffffffffffffffffffffffffff167f1f89f147a58d1673945cf416187db98efc8208408c011b91887acd59fd8523c382604051611bdf9190613a54565b60405180910390a25050565b6060611bf682611f1c565b611c35576040517f08c379a0000000000000000000000000000000000000000000000000000000008152600401611c2c90613994565b60405180910390fd5b6000611c3f61285b565b90506000815111611c5f5760405180602001604052806000815250611c8a565b80611c69846128ed565b604051602001611c7a929190613646565b6040516020818303038152906040525b915050919050565b6000600560008473ffffffffffffffffffffffffffffffffffffffff1673ffffffffffffffffffffffffffffffffffffffff16815260200190815260200160002060008373ffffffffffffffffffffffffffffffffffffffff1673ffffffffffffffffffffffffffffffffffffffff16815260200190815260200160002060009054906101000a900460ff16905092915050565b611d2e611f88565b73ffffffffffffffffffffffffffffffffffffffff16611d4c611848565b73ffffffffffffffffffffffffffffffffffffffff1614611da2576040517f08c379a0000000000000000000000000000000000000000000000000000000008152600401611d9990613974565b60405180910390fd5b600073ffffffffffffffffffffffffffffffffffffffff168173ffffffffffffffffffffffffffffffffffffffff161415611e12576040517f08c379a0000000000000000000000000000000000000000000000000000000008152600401611e0990613774565b60405180910390fd5b611e1b816125ae565b50565b611e26611f88565b73ffffffffffffffffffffffffffffffffffffffff16611e44611848565b73ffffffffffffffffffffffffffffffffffffffff1614611e9a576040517f08c379a0000000000000000000000000000000000000000000000000000000008152600401611e9190613974565b60405180910390fd5b8060098190555050565b60007f01ffc9a7000000000000000000000000000000000000000000000000000000007bffffffffffffffffffffffffffffffffffffffffffffffffffffffff1916827bffffffffffffffffffffffffffffffffffffffffffffffffffffffff1916149050919050565b600081600001549050919050565b60008073ffffffffffffffffffffffffffffffffffffffff166002600084815260200190815260200160002060009054906101000a900473ffffffffffffffffffffffffffffffffffffffff1673ffffffffffffffffffffffffffffffffffffffff1614159050919050565b600033905090565b816004600083815260200190815260200160002060006101000a81548173ffffffffffffffffffffffffffffffffffffffff021916908373ffffffffffffffffffffffffffffffffffffffff160217905550808273ffffffffffffffffffffffffffffffffffffffff1661200383611154565b73ffffffffffffffffffffffffffffffffffffffff167f8c5be1e5ebec7d5bd14f71427d1e84f3dd0314c0f7b2291e5b200ac8c7c3b92560405160405180910390a45050565b6001816000016000828254019250508190555050565b600073ffffffffffffffffffffffffffffffffffffffff168273ffffffffffffffffffffffffffffffffffffffff1614156120cf576040517f08c379a00000000000000000000000000000000000000000000000000000000081526004016120c6906138d4565b60405180910390fd5b6120d881611f1c565b15612118576040517f08c379a000000000000000000000000000000000000000000000000000000000815260040161210f906137b4565b60405180910390fd5b61212460008383612a9a565b6001600360008473ffffffffffffffffffffffffffffffffffffffff1673ffffffffffffffffffffffffffffffffffffffff16815260200190815260200160002060008282546121749190613b34565b92505081905550816002600083815260200190815260200160002060006101000a81548173ffffffffffffffffffffffffffffffffffffffff021916908373ffffffffffffffffffffffffffffffffffffffff160217905550808273ffffffffffffffffffffffffffffffffffffffff16600073ffffffffffffffffffffffffffffffffffffffff167fddf252ad1be2c89b69c2b068fc378daa952ba7f163c4a11628f55a4df523b3ef60405160405180910390a461223560008383612a9f565b5050565b600061224482611f1c565b612283576040517f08c379a000000000000000000000000000000000000000000000000000000000815260040161227a90613814565b60405180910390fd5b600061228e83611154565b90508073ffffffffffffffffffffffffffffffffffffffff168473ffffffffffffffffffffffffffffffffffffffff1614806122fd57508373ffffffffffffffffffffffffffffffffffffffff166122e5846109c1565b73ffffffffffffffffffffffffffffffffffffffff16145b8061230e575061230d8185611c92565b5b91505092915050565b8273ffffffffffffffffffffffffffffffffffffffff1661233782611154565b73ffffffffffffffffffffffffffffffffffffffff161461238d576040517f08c379a000000000000000000000000000000000000000000000000000000000815260040161238490613794565b60405180910390fd5b600073ffffffffffffffffffffffffffffffffffffffff168273ffffffffffffffffffffffffffffffffffffffff1614156123fd576040517f08c379a00000000000000000000000000000000000000000000000000000000081526004016123f4906137d4565b60405180910390fd5b612408838383612a9a565b612413600082611f90565b6001600360008573ffffffffffffffffffffffffffffffffffffffff1673ffffffffffffffffffffffffffffffffffffffff16815260200190815260200160002060008282546124639190613c15565b925050819055506001600360008473ffffffffffffffffffffffffffffffffffffffff1673ffffffffffffffffffffffffffffffffffffffff16815260200190815260200160002060008282546124ba9190613b34565b92505081905550816002600083815260200190815260200160002060006101000a81548173ffffffffffffffffffffffffffffffffffffffff021916908373ffffffffffffffffffffffffffffffffffffffff160217905550808273ffffffffffffffffffffffffffffffffffffffff168473ffffffffffffffffffffffffffffffffffffffff167fddf252ad1be2c89b69c2b068fc378daa952ba7f163c4a11628f55a4df523b3ef60405160405180910390a4612579838383612a9f565b505050565b60008160405160200161259191906135ff565b604051602081830303815290604052805190602001209050919050565b6000600660009054906101000a900473ffffffffffffffffffffffffffffffffffffffff16905081600660006101000a81548173ffffffffffffffffffffffffffffffffffffffff021916908373ffffffffffffffffffffffffffffffffffffffff1602179055508173ffffffffffffffffffffffffffffffffffffffff168173ffffffffffffffffffffffffffffffffffffffff167f8be0079c531659141344cd1fd0a4f28419497f9722a3daafe3b4186f6b6457e060405160405180910390a35050565b8173ffffffffffffffffffffffffffffffffffffffff168373ffffffffffffffffffffffffffffffffffffffff1614156126e3576040517f08c379a00000000000000000000000000000000000000000000000000000000081526004016126da906137f4565b60405180910390fd5b80600560008573ffffffffffffffffffffffffffffffffffffffff1673ffffffffffffffffffffffffffffffffffffffff16815260200190815260200160002060008473ffffffffffffffffffffffffffffffffffffffff1673ffffffffffffffffffffffffffffffffffffffff16815260200190815260200160002060006101000a81548160ff0219169083151502179055508173ffffffffffffffffffffffffffffffffffffffff168373ffffffffffffffffffffffffffffffffffffffff167f17307eab39ab6107e8899845ad3d59bd9653f200f220920489ca2b5937696c31836040516127d491906136dc565b60405180910390a3505050565b6127ec848484612317565b6127f884848484612aa4565b612837576040517f08c379a000000000000000000000000000000000000000000000000000000000815260040161282e90613754565b60405180910390fd5b50505050565b612857828260405180602001604052806000815250612c3b565b5050565b6060600c805461286a90613d09565b80601f016020809104026020016040519081016040528092919081815260200182805461289690613d09565b80156128e35780601f106128b8576101008083540402835291602001916128e3565b820191906000526020600020905b8154815290600101906020018083116128c657829003601f168201915b5050505050905090565b60606000821415612935576040518060400160405280600181526020017f30000000000000000000000000000000000000000000000000000000000000008152509050612a95565b600082905060005b6000821461296757808061295090613d6c565b915050600a826129609190613b8a565b915061293d565b60008167ffffffffffffffff8111156129a9577f4e487b7100000000000000000000000000000000000000000000000000000000600052604160045260246000fd5b6040519080825280601f01601f1916602001820160405280156129db5781602001600182028036833780820191505090505b5090505b60008514612a8e576001826129f49190613c15565b9150600a85612a039190613de3565b6030612a0f9190613b34565b60f81b818381518110612a4b577f4e487b7100000000000000000000000000000000000000000000000000000000600052603260045260246000fd5b60200101907effffffffffffffffffffffffffffffffffffffffffffffffffffffffffffff1916908160001a905350600a85612a879190613b8a565b94506129df565b8093505050505b919050565b505050565b505050565b6000612ac58473ffffffffffffffffffffffffffffffffffffffff16612c96565b15612c2e578373ffffffffffffffffffffffffffffffffffffffff1663150b7a02612aee611f88565b8786866040518563ffffffff1660e01b8152600401612b109493929190613690565b602060405180830381600087803b158015612b2a57600080fd5b505af1925050508015612b5b57506040513d601f19601f82011682018060405250810190612b589190613112565b60015b612bde573d8060008114612b8b576040519150601f19603f3d011682016040523d82523d6000602084013e612b90565b606091505b50600081511415612bd6576040517f08c379a0000000000000000000000000000000000000000000000000000000008152600401612bcd90613754565b60405180910390fd5b805181602001fd5b63150b7a0260e01b7bffffffffffffffffffffffffffffffffffffffffffffffffffffffff1916817bffffffffffffffffffffffffffffffffffffffffffffffffffffffff191614915050612c33565b600190505b949350505050565b612c45838361205f565b612c526000848484612aa4565b612c91576040517f08c379a0000000000000000000000000000000000000000000000000000000008152600401612c8890613754565b60405180910390fd5b505050565b6000808273ffffffffffffffffffffffffffffffffffffffff163b119050919050565b6000612ccc612cc784613a94565b613a6f565b90508083825260208201905082856020860282011115612ceb57600080fd5b60005b85811015612d1b5781612d018882612db7565b845260208401935060208301925050600181019050612cee565b5050509392505050565b6000612d38612d3384613ac0565b613a6f565b905082815260208101848484011115612d5057600080fd5b612d5b848285613cc7565b509392505050565b600081359050612d72816144e0565b92915050565b600082601f830112612d8957600080fd5b8135612d99848260208601612cb9565b91505092915050565b600081359050612db1816144f7565b92915050565b600081359050612dc68161450e565b92915050565b600081359050612ddb81614525565b92915050565b600081519050612df081614525565b92915050565b600082601f830112612e0757600080fd5b8135612e17848260208601612d25565b91505092915050565b600081359050612e2f8161453c565b92915050565b600060208284031215612e4757600080fd5b6000612e5584828501612d63565b91505092915050565b60008060408385031215612e7157600080fd5b6000612e7f85828601612d63565b9250506020612e9085828601612d63565b9150509250929050565b600080600060608486031215612eaf57600080fd5b6000612ebd86828701612d63565b9350506020612ece86828701612d63565b9250506040612edf86828701612e20565b9150509250925092565b60008060008060808587031215612eff57600080fd5b6000612f0d87828801612d63565b9450506020612f1e87828801612d63565b9350506040612f2f87828801612e20565b925050606085013567ffffffffffffffff811115612f4c57600080fd5b612f5887828801612df6565b91505092959194509250565b600080600060608486031215612f7957600080fd5b6000612f8786828701612d63565b935050602084013567ffffffffffffffff811115612fa457600080fd5b612fb086828701612d78565b9250506040612fc186828701612e20565b9150509250925092565b60008060408385031215612fde57600080fd5b6000612fec85828601612d63565b9250506020612ffd85828601612da2565b9150509250929050565b6000806040838503121561301a57600080fd5b600061302885828601612d63565b925050602061303985828601612e20565b9150509250929050565b60006020828403121561305557600080fd5b600061306384828501612da2565b91505092915050565b60006020828403121561307e57600080fd5b600061308c84828501612db7565b91505092915050565b600080604083850312156130a857600080fd5b60006130b685828601612db7565b925050602083013567ffffffffffffffff8111156130d357600080fd5b6130df85828601612d78565b9150509250929050565b6000602082840312156130fb57600080fd5b600061310984828501612dcc565b91505092915050565b60006020828403121561312457600080fd5b600061313284828501612de1565b91505092915050565b60006020828403121561314d57600080fd5b600061315b84828501612e20565b91505092915050565b61316d81613c49565b82525050565b61318461317f82613c49565b613db5565b82525050565b61319381613c5b565b82525050565b6131a281613c67565b82525050565b6131b96131b482613c67565b613dc7565b82525050565b60006131ca82613af1565b6131d48185613b07565b93506131e4818560208601613cd6565b6131ed81613ed0565b840191505092915050565b600061320382613afc565b61320d8185613b18565b935061321d818560208601613cd6565b61322681613ed0565b840191505092915050565b600061323c82613afc565b6132468185613b29565b9350613256818560208601613cd6565b80840191505092915050565b600061326f601183613b18565b915061327a82613eee565b602082019050919050565b6000613292603283613b18565b915061329d82613f17565b604082019050919050565b60006132b5602683613b18565b91506132c082613f66565b604082019050919050565b60006132d8602583613b18565b91506132e382613fb5565b604082019050919050565b60006132fb601c83613b18565b915061330682614004565b602082019050919050565b600061331e602483613b18565b91506133298261402d565b604082019050919050565b6000613341601983613b18565b915061334c8261407c565b602082019050919050565b6000613364602c83613b18565b915061336f826140a5565b604082019050919050565b6000613387601783613b18565b9150613392826140f4565b602082019050919050565b60006133aa603883613b18565b91506133b58261411d565b604082019050919050565b60006133cd600f83613b18565b91506133d88261416c565b602082019050919050565b60006133f0602a83613b18565b91506133fb82614195565b604082019050919050565b6000613413602983613b18565b915061341e826141e4565b604082019050919050565b6000613436602083613b18565b915061344182614233565b602082019050919050565b6000613459601183613b18565b91506134648261425c565b602082019050919050565b600061347c601283613b18565b915061348782614285565b602082019050919050565b600061349f602c83613b18565b91506134aa826142ae565b604082019050919050565b60006134c2600583613b29565b91506134cd826142fd565b600582019050919050565b60006134e5601483613b18565b91506134f082614326565b602082019050919050565b6000613508602083613b18565b91506135138261434f565b602082019050919050565b600061352b602f83613b18565b915061353682614378565b604082019050919050565b600061354e602183613b18565b9150613559826143c7565b604082019050919050565b6000613571601f83613b18565b915061357c82614416565b602082019050919050565b6000613594603183613b18565b915061359f8261443f565b604082019050919050565b60006135b7601883613b18565b91506135c28261448e565b602082019050919050565b60006135da602083613b18565b91506135e5826144b7565b602082019050919050565b6135f981613cbd565b82525050565b600061360b8284613173565b60148201915081905092915050565b600061362682856131a8565b60208201915061363682846131a8565b6020820191508190509392505050565b60006136528285613231565b915061365e8284613231565b9150613669826134b5565b91508190509392505050565b600060208201905061368a6000830184613164565b92915050565b60006080820190506136a56000830187613164565b6136b26020830186613164565b6136bf60408301856135f0565b81810360608301526136d181846131bf565b905095945050505050565b60006020820190506136f1600083018461318a565b92915050565b600060208201905061370c6000830184613199565b92915050565b6000602082019050818103600083015261372c81846131f8565b905092915050565b6000602082019050818103600083015261374d81613262565b9050919050565b6000602082019050818103600083015261376d81613285565b9050919050565b6000602082019050818103600083015261378d816132a8565b9050919050565b600060208201905081810360008301526137ad816132cb565b9050919050565b600060208201905081810360008301526137cd816132ee565b9050919050565b600060208201905081810360008301526137ed81613311565b9050919050565b6000602082019050818103600083015261380d81613334565b9050919050565b6000602082019050818103600083015261382d81613357565b9050919050565b6000602082019050818103600083015261384d8161337a565b9050919050565b6000602082019050818103600083015261386d8161339d565b9050919050565b6000602082019050818103600083015261388d816133c0565b9050919050565b600060208201905081810360008301526138ad816133e3565b9050919050565b600060208201905081810360008301526138cd81613406565b9050919050565b600060208201905081810360008301526138ed81613429565b9050919050565b6000602082019050818103600083015261390d8161344c565b9050919050565b6000602082019050818103600083015261392d8161346f565b9050919050565b6000602082019050818103600083015261394d81613492565b9050919050565b6000602082019050818103600083015261396d816134d8565b9050919050565b6000602082019050818103600083015261398d816134fb565b9050919050565b600060208201905081810360008301526139ad8161351e565b9050919050565b600060208201905081810360008301526139cd81613541565b9050919050565b600060208201905081810360008301526139ed81613564565b9050919050565b60006020820190508181036000830152613a0d81613587565b9050919050565b60006020820190508181036000830152613a2d816135aa565b9050919050565b60006020820190508181036000830152613a4d816135cd565b9050919050565b6000602082019050613a6960008301846135f0565b92915050565b6000613a79613a8a565b9050613a858282613d3b565b919050565b6000604051905090565b600067ffffffffffffffff821115613aaf57613aae613ea1565b5b602082029050602081019050919050565b600067ffffffffffffffff821115613adb57613ada613ea1565b5b613ae482613ed0565b9050602081019050919050565b600081519050919050565b600081519050919050565b600082825260208201905092915050565b600082825260208201905092915050565b600081905092915050565b6000613b3f82613cbd565b9150613b4a83613cbd565b9250827fffffffffffffffffffffffffffffffffffffffffffffffffffffffffffffffff03821115613b7f57613b7e613e14565b5b828201905092915050565b6000613b9582613cbd565b9150613ba083613cbd565b925082613bb057613baf613e43565b5b828204905092915050565b6000613bc682613cbd565b9150613bd183613cbd565b9250817fffffffffffffffffffffffffffffffffffffffffffffffffffffffffffffffff0483118215151615613c0a57613c09613e14565b5b828202905092915050565b6000613c2082613cbd565b9150613c2b83613cbd565b925082821015613c3e57613c3d613e14565b5b828203905092915050565b6000613c5482613c9d565b9050919050565b60008115159050919050565b6000819050919050565b60007fffffffff0000000000000000000000000000000000000000000000000000000082169050919050565b600073ffffffffffffffffffffffffffffffffffffffff82169050919050565b6000819050919050565b82818337600083830152505050565b60005b83811015613cf4578082015181840152602081019050613cd9565b83811115613d03576000848401525b50505050565b60006002820490506001821680613d2157607f821691505b60208210811415613d3557613d34613e72565b5b50919050565b613d4482613ed0565b810181811067ffffffffffffffff82111715613d6357613d62613ea1565b5b80604052505050565b6000613d7782613cbd565b91507fffffffffffffffffffffffffffffffffffffffffffffffffffffffffffffffff821415613daa57613da9613e14565b5b600182019050919050565b6000613dc082613dd1565b9050919050565b6000819050919050565b6000613ddc82613ee1565b9050919050565b6000613dee82613cbd565b9150613df983613cbd565b925082613e0957613e08613e43565b5b828206905092915050565b7f4e487b7100000000000000000000000000000000000000000000000000000000600052601160045260246000fd5b7f4e487b7100000000000000000000000000000000000000000000000000000000600052601260045260246000fd5b7f4e487b7100000000000000000000000000000000000000000000000000000000600052602260045260246000fd5b7f4e487b7100000000000000000000000000000000000000000000000000000000600052604160045260246000fd5b6000601f19601f8301169050919050565b60008160601b9050919050565b7f596f7520657863656564206c696d69742e000000000000000000000000000000600082015250565b7f4552433732313a207472616e7366657220746f206e6f6e20455243373231526560008201527f63656976657220696d706c656d656e7465720000000000000000000000000000602082015250565b7f4f776e61626c653a206e6577206f776e657220697320746865207a65726f206160008201527f6464726573730000000000000000000000000000000000000000000000000000602082015250565b7f4552433732313a207472616e736665722066726f6d20696e636f72726563742060008201527f6f776e6572000000000000000000000000000000000000000000000000000000602082015250565b7f4552433732313a20746f6b656e20616c7265616479206d696e74656400000000600082015250565b7f4552433732313a207472616e7366657220746f20746865207a65726f2061646460008201527f7265737300000000000000000000000000000000000000000000000000000000602082015250565b7f4552433732313a20617070726f766520746f2063616c6c657200000000000000600082015250565b7f4552433732313a206f70657261746f7220717565727920666f72206e6f6e657860008201527f697374656e7420746f6b656e0000000000000000000000000000000000000000602082015250565b7f53616c65206973206e6f74207374617274656420796574000000000000000000600082015250565b7f4552433732313a20617070726f76652063616c6c6572206973206e6f74206f7760008201527f6e6572206e6f7220617070726f76656420666f7220616c6c0000000000000000602082015250565b7f4e6f742077686974656c69737465640000000000000000000000000000000000600082015250565b7f4552433732313a2062616c616e636520717565727920666f7220746865207a6560008201527f726f206164647265737300000000000000000000000000000000000000000000602082015250565b7f4552433732313a206f776e657220717565727920666f72206e6f6e657869737460008201527f656e7420746f6b656e0000000000000000000000000000000000000000000000602082015250565b7f4552433732313a206d696e7420746f20746865207a65726f2061646472657373600082015250565b7f457863656564206d617820737570706c79000000000000000000000000000000600082015250565b7f457863656564206d617820737570706c792e0000000000000000000000000000600082015250565b7f4552433732313a20617070726f76656420717565727920666f72206e6f6e657860008201527f697374656e7420746f6b656e0000000000000000000000000000000000000000602082015250565b7f2e6a736f6e000000000000000000000000000000000000000000000000000000600082015250565b7f4d6f6e6579206973206e6f7420656e6f75676821000000000000000000000000600082015250565b7f4f776e61626c653a2063616c6c6572206973206e6f7420746865206f776e6572600082015250565b7f4552433732314d657461646174613a2055524920717565727920666f72206e6f60008201527f6e6578697374656e7420746f6b656e0000000000000000000000000000000000602082015250565b7f4552433732313a20617070726f76616c20746f2063757272656e74206f776e6560008201527f7200000000000000000000000000000000000000000000000000000000000000602082015250565b7f5075626c6963206d696e74206973206e6f742073746172746564207965742100600082015250565b7f4552433732313a207472616e736665722063616c6c6572206973206e6f74206f60008201527f776e6572206e6f7220617070726f766564000000000000000000000000000000602082015250565b7f50726573616c65206973206e6f7420737570706f746564210000000000000000600082015250565b7f596f7520657863656564206c696d697420686f6c64696e6720616d6f756e742e600082015250565b6144e981613c49565b81146144f457600080fd5b50565b61450081613c5b565b811461450b57600080fd5b50565b61451781613c67565b811461452257600080fd5b50565b61452e81613c71565b811461453957600080fd5b50565b61454581613cbd565b811461455057600080fd5b5056fea26469706673582212200393502a48f42b84115cdafa1917353325f301e13a658feb9d3d882ec6c728b264736f6c6343000804003368747470733a2f2f6b616e657373616e66742e6d7970696e6174612e636c6f75642f697066732f516d546f7676584637414365315554635761334a755475574c324a4a346e454c534579795753664d5450637473502f",
  "linkReferences": {},
  "deployedLinkReferences": {}
}