{
  "_format": "hh-sol-artifact-1",
  "contractName": "KanessaNFT",
  "sourceName": "contracts/Kanessa.sol",
  "abi": [
    {
      "inputs": [],
      "stateMutability": "nonpayable",
      "type": "constructor"
    },
    {
      "anonymous": false,
      "inputs": [
        {
          "indexed": true,
          "internalType": "address",
          "name": "owner",
          "type": "address"
        },
        {
          "indexed": true,
          "internalType": "address",
          "name": "approved",
          "type": "address"
        },
        {
          "indexed": true,
          "internalType": "uint256",
          "name": "tokenId",
          "type": "uint256"
        }
      ],
      "name": "Approval",
      "type": "event"
    },
    {
      "anonymous": false,
      "inputs": [
        {
          "indexed": true,
          "internalType": "address",
          "name": "owner",
          "type": "address"
        },
        {
          "indexed": true,
          "internalType": "address",
          "name": "operator",
          "type": "address"
        },
        {
          "indexed": false,
          "internalType": "bool",
          "name": "approved",
          "type": "bool"
        }
      ],
      "name": "ApprovalForAll",
      "type": "event"
    },
    {
      "anonymous": false,
      "inputs": [
        {
          "indexed": true,
          "internalType": "address",
          "name": "_to",
          "type": "address"
        },
        {
          "indexed": false,
          "internalType": "uint256",
          "name": "_number",
          "type": "uint256"
        }
      ],
      "name": "MintNFT",
      "type": "event"
    },
    {
      "anonymous": false,
      "inputs": [
        {
          "indexed": true,
          "internalType": "address",
          "name": "previousOwner",
          "type": "address"
        },
        {
          "indexed": true,
          "internalType": "address",
          "name": "newOwner",
          "type": "address"
        }
      ],
      "name": "OwnershipTransferred",
      "type": "event"
    },
    {
      "anonymous": false,
      "inputs": [
        {
          "indexed": true,
          "internalType": "address",
          "name": "from",
          "type": "address"
        },
        {
          "indexed": true,
          "internalType": "address",
          "name": "to",
          "type": "address"
        },
        {
          "indexed": true,
          "internalType": "uint256",
          "name": "tokenId",
          "type": "uint256"
        }
      ],
      "name": "Transfer",
      "type": "event"
    },
    {
      "anonymous": false,
      "inputs": [
        {
          "indexed": false,
          "internalType": "bool",
          "name": "isWhiteList",
          "type": "bool"
        }
      ],
      "name": "WhitelistModeChanged",
      "type": "event"
    },
    {
      "inputs": [
        {
          "internalType": "address",
          "name": "to",
          "type": "address"
        },
        {
          "internalType": "uint256",
          "name": "tokenId",
          "type": "uint256"
        }
      ],
      "name": "approve",
      "outputs": [],
      "stateMutability": "nonpayable",
      "type": "function"
    },
    {
      "inputs": [
        {
          "internalType": "address",
          "name": "owner",
          "type": "address"
        }
      ],
      "name": "balanceOf",
      "outputs": [
        {
          "internalType": "uint256",
          "name": "",
          "type": "uint256"
        }
      ],
      "stateMutability": "view",
      "type": "function"
    },
    {
      "inputs": [],
      "name": "count",
      "outputs": [
        {
          "internalType": "uint256",
          "name": "",
          "type": "uint256"
        }
      ],
      "stateMutability": "view",
      "type": "function"
    },
    {
      "inputs": [
        {
          "internalType": "uint256",
          "name": "tokenId",
          "type": "uint256"
        }
      ],
      "name": "getApproved",
      "outputs": [
        {
          "internalType": "address",
          "name": "",
          "type": "address"
        }
      ],
      "stateMutability": "view",
      "type": "function"
    },
    {
      "inputs": [
        {
          "internalType": "address",
          "name": "owner",
          "type": "address"
        },
        {
          "internalType": "address",
          "name": "operator",
          "type": "address"
        }
      ],
      "name": "isApprovedForAll",
      "outputs": [
        {
          "internalType": "bool",
          "name": "",
          "type": "bool"
        }
      ],
      "stateMutability": "view",
      "type": "function"
    },
    {
      "inputs": [],
      "name": "name",
      "outputs": [
        {
          "internalType": "string",
          "name": "",
          "type": "string"
        }
      ],
      "stateMutability": "view",
      "type": "function"
    },
    {
      "inputs": [],
      "name": "owner",
      "outputs": [
        {
          "internalType": "address",
          "name": "",
          "type": "address"
        }
      ],
      "stateMutability": "view",
      "type": "function"
    },
    {
      "inputs": [
        {
          "internalType": "uint256",
          "name": "tokenId",
          "type": "uint256"
        }
      ],
      "name": "ownerOf",
      "outputs": [
        {
          "internalType": "address",
          "name": "",
          "type": "address"
        }
      ],
      "stateMutability": "view",
      "type": "function"
    },
    {
      "inputs": [
        {
          "internalType": "address",
          "name": "recipiant",
          "type": "address"
        },
        {
          "internalType": "uint256",
          "name": "number",
          "type": "uint256"
        }
      ],
      "name": "payToMint",
      "outputs": [],
      "stateMutability": "payable",
      "type": "function"
    },
    {
      "inputs": [
        {
          "internalType": "address",
          "name": "recipiant",
          "type": "address"
        },
        {
          "internalType": "bytes32[]",
          "name": "proof",
          "type": "bytes32[]"
        },
        {
          "internalType": "uint256",
          "name": "number",
          "type": "uint256"
        }
      ],
      "name": "payToWhiteMint",
      "outputs": [],
      "stateMutability": "payable",
      "type": "function"
    },
    {
      "inputs": [],
      "name": "price",
      "outputs": [
        {
          "internalType": "uint256",
          "name": "",
          "type": "uint256"
        }
      ],
      "stateMutability": "view",
      "type": "function"
    },
    {
      "inputs": [],
      "name": "renounceOwnership",
      "outputs": [],
      "stateMutability": "nonpayable",
      "type": "function"
    },
    {
      "inputs": [
        {
          "internalType": "address",
          "name": "to",
          "type": "address"
        },
        {
          "internalType": "uint256",
          "name": "number",
          "type": "uint256"
        }
      ],
      "name": "safeMint",
      "outputs": [],
      "stateMutability": "nonpayable",
      "type": "function"
    },
    {
      "inputs": [
        {
          "internalType": "address",
          "name": "from",
          "type": "address"
        },
        {
          "internalType": "address",
          "name": "to",
          "type": "address"
        },
        {
          "internalType": "uint256",
          "name": "tokenId",
          "type": "uint256"
        }
      ],
      "name": "safeTransferFrom",
      "outputs": [],
      "stateMutability": "nonpayable",
      "type": "function"
    },
    {
      "inputs": [
        {
          "internalType": "address",
          "name": "from",
          "type": "address"
        },
        {
          "internalType": "address",
          "name": "to",
          "type": "address"
        },
        {
          "internalType": "uint256",
          "name": "tokenId",
          "type": "uint256"
        },
        {
          "internalType": "bytes",
          "name": "_data",
          "type": "bytes"
        }
      ],
      "name": "safeTransferFrom",
      "outputs": [],
      "stateMutability": "nonpayable",
      "type": "function"
    },
    {
      "inputs": [
        {
          "internalType": "address",
          "name": "operator",
          "type": "address"
        },
        {
          "internalType": "bool",
          "name": "approved",
          "type": "bool"
        }
      ],
      "name": "setApprovalForAll",
      "outputs": [],
      "stateMutability": "nonpayable",
      "type": "function"
    },
    {
      "inputs": [
        {
          "internalType": "bool",
          "name": "mode",
          "type": "bool"
        }
      ],
      "name": "setWhiteListMode",
      "outputs": [],
      "stateMutability": "nonpayable",
      "type": "function"
    },
    {
      "inputs": [
        {
          "internalType": "bytes32",
          "name": "root",
          "type": "bytes32"
        }
      ],
      "name": "setWhitelistRoot",
      "outputs": [],
      "stateMutability": "nonpayable",
      "type": "function"
    },
    {
      "inputs": [
        {
          "internalType": "bytes4",
          "name": "interfaceId",
          "type": "bytes4"
        }
      ],
      "name": "supportsInterface",
      "outputs": [
        {
          "internalType": "bool",
          "name": "",
          "type": "bool"
        }
      ],
      "stateMutability": "view",
      "type": "function"
    },
    {
      "inputs": [],
      "name": "symbol",
      "outputs": [
        {
          "internalType": "string",
          "name": "",
          "type": "string"
        }
      ],
      "stateMutability": "view",
      "type": "function"
    },
    {
      "inputs": [
        {
          "internalType": "uint256",
          "name": "tokenId",
          "type": "uint256"
        }
      ],
      "name": "tokenURI",
      "outputs": [
        {
          "internalType": "string",
          "name": "",
          "type": "string"
        }
      ],
      "stateMutability": "view",
      "type": "function"
    },
    {
      "inputs": [],
      "name": "totalCount",
      "outputs": [
        {
          "internalType": "uint256",
          "name": "",
          "type": "uint256"
        }
      ],
      "stateMutability": "pure",
      "type": "function"
    },
    {
      "inputs": [
        {
          "internalType": "address",
          "name": "from",
          "type": "address"
        },
        {
          "internalType": "address",
          "name": "to",
          "type": "address"
        },
        {
          "internalType": "uint256",
          "name": "tokenId",
          "type": "uint256"
        }
      ],
      "name": "transferFrom",
      "outputs": [],
      "stateMutability": "nonpayable",
      "type": "function"
    },
    {
      "inputs": [
        {
          "internalType": "address",
          "name": "newOwner",
          "type": "address"
        }
      ],
      "name": "transferOwnership",
      "outputs": [],
      "stateMutability": "nonpayable",
      "type": "function"
    },
    {
      "inputs": [
        {
          "internalType": "bytes32",
          "name": "leaf",
          "type": "bytes32"
        },
        {
          "internalType": "bytes32[]",
          "name": "proof",
          "type": "bytes32[]"
        }
      ],
      "name": "verifyWhitelist",
      "outputs": [
        {
          "internalType": "bool",
          "name": "",
          "type": "bool"
        }
      ],
      "stateMutability": "view",
      "type": "function"
    },
    {
      "inputs": [],
      "name": "whitelistMode",
      "outputs": [
        {
          "internalType": "bool",
          "name": "",
          "type": "bool"
        }
      ],
      "stateMutability": "view",
      "type": "function"
    },
    {
      "inputs": [],
      "name": "whitelistRoot",
      "outputs": [
        {
          "internalType": "bytes32",
          "name": "",
          "type": "bytes32"
        }
      ],
      "stateMutability": "view",
      "type": "function"
    },
    {
      "inputs": [],
      "name": "withdraw",
      "outputs": [],
      "stateMutability": "nonpayable",
      "type": "function"
    }
  ],
  "bytecode": "0x608060405266470de4df820000600a5566b1a2bc2ec50000600b553480156200002757600080fd5b506040518060400160405280601c81526020017f4b616e657373614e4654202d20506c75732053697a65204c61647929000000008152506040518060400160405280600381526020017f50534c00000000000000000000000000000000000000000000000000000000008152508160009080519060200190620000ac92919062000233565b508060019080519060200190620000c592919062000233565b505050620000e8620000dc6200016560201b60201c565b6200016d60201b60201c565b7f7036c18b7148a5450c499d5c83cf6dac05902701bbbca399f37345095ecf0dcb60001b60098190555060405180608001604052806056815260200162003ed960569139600c90805190602001906200014392919062000233565b506001600860006101000a81548160ff02191690831515021790555062000348565b600033905090565b6000600660009054906101000a900473ffffffffffffffffffffffffffffffffffffffff16905081600660006101000a81548173ffffffffffffffffffffffffffffffffffffffff021916908373ffffffffffffffffffffffffffffffffffffffff1602179055508173ffffffffffffffffffffffffffffffffffffffff168173ffffffffffffffffffffffffffffffffffffffff167f8be0079c531659141344cd1fd0a4f28419497f9722a3daafe3b4186f6b6457e060405160405180910390a35050565b8280546200024190620002e3565b90600052602060002090601f016020900481019282620002655760008555620002b1565b82601f106200028057805160ff1916838001178555620002b1565b82800160010185558215620002b1579182015b82811115620002b057825182559160200191906001019062000293565b5b509050620002c09190620002c4565b5090565b5b80821115620002df576000816000905550600101620002c5565b5090565b60006002820490506001821680620002fc57607f821691505b6020821081141562000313576200031262000319565b5b50919050565b7f4e487b7100000000000000000000000000000000000000000000000000000000600052602260045260246000fd5b613b8180620003586000396000f3fe6080604052600436106101b75760003560e01c806365b31a66116100ec578063a14481941161008a578063c87b56dd11610064578063c87b56dd146105ca578063e985e9c514610607578063f2fde38b14610644578063f5aa406d1461066d576101b7565b8063a14481941461054f578063a22cb46514610578578063b88d4fde146105a1576101b7565b8063715018a6116100c6578063715018a6146104b75780638da5cb5b146104ce57806395d89b41146104f9578063a035b1fe14610524576101b7565b806365b31a661461043357806370a082311461044f57806370c757ec1461048c576101b7565b806323b872dd11610159578063386bfc9811610133578063386bfc981461038b5780633ccfd60b146103b657806342842e0e146103cd5780636352211e146103f6576101b7565b806323b872dd146102fa578063329ea90d1461032357806334eafb1114610360576101b7565b8063081812fc11610195578063081812fc1461024f578063095ea7b31461028c5780631aa6fa0b146102b55780631e23645f146102d1576101b7565b806301ffc9a7146101bc57806306661abd146101f957806306fdde0314610224575b600080fd5b3480156101c857600080fd5b506101e360048036038101906101de91906128fd565b610696565b6040516101f09190612e41565b60405180910390f35b34801561020557600080fd5b5061020e610778565b60405161021b9190613119565b60405180910390f35b34801561023057600080fd5b50610239610789565b6040516102469190612e77565b60405180910390f35b34801561025b57600080fd5b506102766004803603810190610271919061294f565b61081b565b6040516102839190612dda565b60405180910390f35b34801561029857600080fd5b506102b360048036038101906102ae919061281b565b6108a0565b005b6102cf60048036038101906102ca919061281b565b6109b8565b005b3480156102dd57600080fd5b506102f860048036038101906102f39190612857565b610af1565b005b34801561030657600080fd5b50610321600480360381019061031c91906126ae565b610bc1565b005b34801561032f57600080fd5b5061034a600480360381019061034591906128a9565b610c21565b6040516103579190612e41565b60405180910390f35b34801561036c57600080fd5b50610375610cff565b6040516103829190613119565b60405180910390f35b34801561039757600080fd5b506103a0610d09565b6040516103ad9190612e5c565b60405180910390f35b3480156103c257600080fd5b506103cb610d13565b005b3480156103d957600080fd5b506103f460048036038101906103ef91906126ae565b610dd8565b005b34801561040257600080fd5b5061041d6004803603810190610418919061294f565b610df8565b60405161042a9190612dda565b60405180910390f35b61044d60048036038101906104489190612778565b610eaa565b005b34801561045b57600080fd5b5061047660048036038101906104719190612649565b61103a565b6040516104839190613119565b60405180910390f35b34801561049857600080fd5b506104a16110f2565b6040516104ae9190612e41565b60405180910390f35b3480156104c357600080fd5b506104cc611109565b005b3480156104da57600080fd5b506104e3611191565b6040516104f09190612dda565b60405180910390f35b34801561050557600080fd5b5061050e6111bb565b60405161051b9190612e77565b60405180910390f35b34801561053057600080fd5b5061053961124d565b6040516105469190613119565b60405180910390f35b34801561055b57600080fd5b506105766004803603810190610571919061281b565b611277565b005b34801561058457600080fd5b5061059f600480360381019061059a91906127df565b611387565b005b3480156105ad57600080fd5b506105c860048036038101906105c391906126fd565b61139d565b005b3480156105d657600080fd5b506105f160048036038101906105ec919061294f565b6113ff565b6040516105fe9190612e77565b60405180910390f35b34801561061357600080fd5b5061062e60048036038101906106299190612672565b6114a6565b60405161063b9190612e41565b60405180910390f35b34801561065057600080fd5b5061066b60048036038101906106669190612649565b61153a565b005b34801561067957600080fd5b50610694600480360381019061068f9190612880565b611632565b005b60007f80ac58cd000000000000000000000000000000000000000000000000000000007bffffffffffffffffffffffffffffffffffffffffffffffffffffffff1916827bffffffffffffffffffffffffffffffffffffffffffffffffffffffff1916148061076157507f5b5e139f000000000000000000000000000000000000000000000000000000007bffffffffffffffffffffffffffffffffffffffffffffffffffffffff1916827bffffffffffffffffffffffffffffffffffffffffffffffffffffffff1916145b806107715750610770826116b8565b5b9050919050565b60006107846007611722565b905090565b606060008054610798906133ce565b80601f01602080910402602001604051908101604052809291908181526020018280546107c4906133ce565b80156108115780601f106107e657610100808354040283529160200191610811565b820191906000526020600020905b8154815290600101906020018083116107f457829003601f168201915b5050505050905090565b600061082682611730565b610865576040517f08c379a000000000000000000000000000000000000000000000000000000000815260040161085c90613019565b60405180910390fd5b6004600083815260200190815260200160002060009054906101000a900473ffffffffffffffffffffffffffffffffffffffff169050919050565b60006108ab82610df8565b90508073ffffffffffffffffffffffffffffffffffffffff168373ffffffffffffffffffffffffffffffffffffffff16141561091c576040517f08c379a000000000000000000000000000000000000000000000000000000000815260040161091390613099565b60405180910390fd5b8073ffffffffffffffffffffffffffffffffffffffff1661093b61179c565b73ffffffffffffffffffffffffffffffffffffffff16148061096a57506109698161096461179c565b6114a6565b5b6109a9576040517f08c379a00000000000000000000000000000000000000000000000000000000081526004016109a090612f79565b60405180910390fd5b6109b383836117a4565b505050565b600860009054906101000a900460ff1615610a08576040517f08c379a00000000000000000000000000000000000000000000000000000000081526004016109ff906130b9565b60405180910390fd5b80610a1161124d565b610a1b9190613280565b341015610a5d576040517f08c379a0000000000000000000000000000000000000000000000000000000008152600401610a5490613039565b60405180910390fd5b60005b81811015610a9e576000610a746007611722565b9050610a80600761185d565b610a8a8482611873565b508080610a9690613431565b915050610a60565b508173ffffffffffffffffffffffffffffffffffffffff167f1f89f147a58d1673945cf416187db98efc8208408c011b91887acd59fd8523c382604051610ae59190613119565b60405180910390a25050565b610af961179c565b73ffffffffffffffffffffffffffffffffffffffff16610b17611191565b73ffffffffffffffffffffffffffffffffffffffff1614610b6d576040517f08c379a0000000000000000000000000000000000000000000000000000000008152600401610b6490613059565b60405180910390fd5b80600860006101000a81548160ff0219169083151502179055507f9094b093988cc7e117334d86adc047e84bbc414f34eb87fe4dd14fc3f623733d81604051610bb69190612e41565b60405180910390a150565b610bd2610bcc61179c565b82611a4d565b610c11576040517f08c379a0000000000000000000000000000000000000000000000000000000008152600401610c08906130d9565b60405180910390fd5b610c1c838383611b2b565b505050565b60008083905060005b8351811015610cf0576000848281518110610c6e577f4e487b7100000000000000000000000000000000000000000000000000000000600052603260045260246000fd5b6020026020010151905080831015610cb0578281604051602001610c93929190612d7f565b604051602081830303815290604052805190602001209250610cdc565b8083604051602001610cc3929190612d7f565b6040516020818303038152906040528051906020012092505b508080610ce890613431565b915050610c2a565b50600954811491505092915050565b60006103e8905090565b6000600954905090565b610d1b61179c565b73ffffffffffffffffffffffffffffffffffffffff16610d39611191565b73ffffffffffffffffffffffffffffffffffffffff1614610d8f576040517f08c379a0000000000000000000000000000000000000000000000000000000008152600401610d8690613059565b60405180910390fd5b3373ffffffffffffffffffffffffffffffffffffffff166108fc479081150290604051600060405180830381858888f19350505050158015610dd5573d6000803e3d6000fd5b50565b610df38383836040518060200160405280600081525061139d565b505050565b6000806002600084815260200190815260200160002060009054906101000a900473ffffffffffffffffffffffffffffffffffffffff169050600073ffffffffffffffffffffffffffffffffffffffff168173ffffffffffffffffffffffffffffffffffffffff161415610ea1576040517f08c379a0000000000000000000000000000000000000000000000000000000008152600401610e9890612fd9565b60405180910390fd5b80915050919050565b600860009054906101000a900460ff16610ef9576040517f08c379a0000000000000000000000000000000000000000000000000000000008152600401610ef0906130f9565b60405180910390fd5b6000610f0d610f0785611d92565b84610c21565b905080610f4f576040517f08c379a0000000000000000000000000000000000000000000000000000000008152600401610f4690612f99565b60405180910390fd5b81610f5861124d565b610f629190613280565b341015610fa4576040517f08c379a0000000000000000000000000000000000000000000000000000000008152600401610f9b90613039565b60405180910390fd5b60005b82811015610fe5576000610fbb6007611722565b9050610fc7600761185d565b610fd18682611873565b508080610fdd90613431565b915050610fa7565b508373ffffffffffffffffffffffffffffffffffffffff167f1f89f147a58d1673945cf416187db98efc8208408c011b91887acd59fd8523c38360405161102c9190613119565b60405180910390a250505050565b60008073ffffffffffffffffffffffffffffffffffffffff168273ffffffffffffffffffffffffffffffffffffffff1614156110ab576040517f08c379a00000000000000000000000000000000000000000000000000000000081526004016110a290612fb9565b60405180910390fd5b600360008373ffffffffffffffffffffffffffffffffffffffff1673ffffffffffffffffffffffffffffffffffffffff168152602001908152602001600020549050919050565b6000600860009054906101000a900460ff16905090565b61111161179c565b73ffffffffffffffffffffffffffffffffffffffff1661112f611191565b73ffffffffffffffffffffffffffffffffffffffff1614611185576040517f08c379a000000000000000000000000000000000000000000000000000000000815260040161117c90613059565b60405180910390fd5b61118f6000611dc2565b565b6000600660009054906101000a900473ffffffffffffffffffffffffffffffffffffffff16905090565b6060600180546111ca906133ce565b80601f01602080910402602001604051908101604052809291908181526020018280546111f6906133ce565b80156112435780601f1061121857610100808354040283529160200191611243565b820191906000526020600020905b81548152906001019060200180831161122657829003601f168201915b5050505050905090565b6000600860009054906101000a900460ff161561126e57600a549050611274565b600b5490505b90565b61127f61179c565b73ffffffffffffffffffffffffffffffffffffffff1661129d611191565b73ffffffffffffffffffffffffffffffffffffffff16146112f3576040517f08c379a00000000000000000000000000000000000000000000000000000000081526004016112ea90613059565b60405180910390fd5b60005b8181101561133457600061130a6007611722565b9050611316600761185d565b6113208482611e88565b50808061132c90613431565b9150506112f6565b508173ffffffffffffffffffffffffffffffffffffffff167f1f89f147a58d1673945cf416187db98efc8208408c011b91887acd59fd8523c38260405161137b9190613119565b60405180910390a25050565b61139961139261179c565b8383611ea6565b5050565b6113ae6113a861179c565b83611a4d565b6113ed576040517f08c379a00000000000000000000000000000000000000000000000000000000081526004016113e4906130d9565b60405180910390fd5b6113f984848484612013565b50505050565b606061140a82611730565b611449576040517f08c379a000000000000000000000000000000000000000000000000000000000815260040161144090613079565b60405180910390fd5b600061145361206f565b90506000815111611473576040518060200160405280600081525061149e565b8061147d84612101565b60405160200161148e929190612dab565b6040516020818303038152906040525b915050919050565b6000600560008473ffffffffffffffffffffffffffffffffffffffff1673ffffffffffffffffffffffffffffffffffffffff16815260200190815260200160002060008373ffffffffffffffffffffffffffffffffffffffff1673ffffffffffffffffffffffffffffffffffffffff16815260200190815260200160002060009054906101000a900460ff16905092915050565b61154261179c565b73ffffffffffffffffffffffffffffffffffffffff16611560611191565b73ffffffffffffffffffffffffffffffffffffffff16146115b6576040517f08c379a00000000000000000000000000000000000000000000000000000000081526004016115ad90613059565b60405180910390fd5b600073ffffffffffffffffffffffffffffffffffffffff168173ffffffffffffffffffffffffffffffffffffffff161415611626576040517f08c379a000000000000000000000000000000000000000000000000000000000815260040161161d90612eb9565b60405180910390fd5b61162f81611dc2565b50565b61163a61179c565b73ffffffffffffffffffffffffffffffffffffffff16611658611191565b73ffffffffffffffffffffffffffffffffffffffff16146116ae576040517f08c379a00000000000000000000000000000000000000000000000000000000081526004016116a590613059565b60405180910390fd5b8060098190555050565b60007f01ffc9a7000000000000000000000000000000000000000000000000000000007bffffffffffffffffffffffffffffffffffffffffffffffffffffffff1916827bffffffffffffffffffffffffffffffffffffffffffffffffffffffff1916149050919050565b600081600001549050919050565b60008073ffffffffffffffffffffffffffffffffffffffff166002600084815260200190815260200160002060009054906101000a900473ffffffffffffffffffffffffffffffffffffffff1673ffffffffffffffffffffffffffffffffffffffff1614159050919050565b600033905090565b816004600083815260200190815260200160002060006101000a81548173ffffffffffffffffffffffffffffffffffffffff021916908373ffffffffffffffffffffffffffffffffffffffff160217905550808273ffffffffffffffffffffffffffffffffffffffff1661181783610df8565b73ffffffffffffffffffffffffffffffffffffffff167f8c5be1e5ebec7d5bd14f71427d1e84f3dd0314c0f7b2291e5b200ac8c7c3b92560405160405180910390a45050565b6001816000016000828254019250508190555050565b600073ffffffffffffffffffffffffffffffffffffffff168273ffffffffffffffffffffffffffffffffffffffff1614156118e3576040517f08c379a00000000000000000000000000000000000000000000000000000000081526004016118da90612ff9565b60405180910390fd5b6118ec81611730565b1561192c576040517f08c379a000000000000000000000000000000000000000000000000000000000815260040161192390612ef9565b60405180910390fd5b611938600083836122ae565b6001600360008473ffffffffffffffffffffffffffffffffffffffff1673ffffffffffffffffffffffffffffffffffffffff168152602001908152602001600020600082825461198891906131f9565b92505081905550816002600083815260200190815260200160002060006101000a81548173ffffffffffffffffffffffffffffffffffffffff021916908373ffffffffffffffffffffffffffffffffffffffff160217905550808273ffffffffffffffffffffffffffffffffffffffff16600073ffffffffffffffffffffffffffffffffffffffff167fddf252ad1be2c89b69c2b068fc378daa952ba7f163c4a11628f55a4df523b3ef60405160405180910390a4611a49600083836122b3565b5050565b6000611a5882611730565b611a97576040517f08c379a0000000000000000000000000000000000000000000000000000000008152600401611a8e90612f59565b60405180910390fd5b6000611aa283610df8565b90508073ffffffffffffffffffffffffffffffffffffffff168473ffffffffffffffffffffffffffffffffffffffff161480611b1157508373ffffffffffffffffffffffffffffffffffffffff16611af98461081b565b73ffffffffffffffffffffffffffffffffffffffff16145b80611b225750611b2181856114a6565b5b91505092915050565b8273ffffffffffffffffffffffffffffffffffffffff16611b4b82610df8565b73ffffffffffffffffffffffffffffffffffffffff1614611ba1576040517f08c379a0000000000000000000000000000000000000000000000000000000008152600401611b9890612ed9565b60405180910390fd5b600073ffffffffffffffffffffffffffffffffffffffff168273ffffffffffffffffffffffffffffffffffffffff161415611c11576040517f08c379a0000000000000000000000000000000000000000000000000000000008152600401611c0890612f19565b60405180910390fd5b611c1c8383836122ae565b611c276000826117a4565b6001600360008573ffffffffffffffffffffffffffffffffffffffff1673ffffffffffffffffffffffffffffffffffffffff1681526020019081526020016000206000828254611c7791906132da565b925050819055506001600360008473ffffffffffffffffffffffffffffffffffffffff1673ffffffffffffffffffffffffffffffffffffffff1681526020019081526020016000206000828254611cce91906131f9565b92505081905550816002600083815260200190815260200160002060006101000a81548173ffffffffffffffffffffffffffffffffffffffff021916908373ffffffffffffffffffffffffffffffffffffffff160217905550808273ffffffffffffffffffffffffffffffffffffffff168473ffffffffffffffffffffffffffffffffffffffff167fddf252ad1be2c89b69c2b068fc378daa952ba7f163c4a11628f55a4df523b3ef60405160405180910390a4611d8d8383836122b3565b505050565b600081604051602001611da59190612d64565b604051602081830303815290604052805190602001209050919050565b6000600660009054906101000a900473ffffffffffffffffffffffffffffffffffffffff16905081600660006101000a81548173ffffffffffffffffffffffffffffffffffffffff021916908373ffffffffffffffffffffffffffffffffffffffff1602179055508173ffffffffffffffffffffffffffffffffffffffff168173ffffffffffffffffffffffffffffffffffffffff167f8be0079c531659141344cd1fd0a4f28419497f9722a3daafe3b4186f6b6457e060405160405180910390a35050565b611ea28282604051806020016040528060008152506122b8565b5050565b8173ffffffffffffffffffffffffffffffffffffffff168373ffffffffffffffffffffffffffffffffffffffff161415611f15576040517f08c379a0000000000000000000000000000000000000000000000000000000008152600401611f0c90612f39565b60405180910390fd5b80600560008573ffffffffffffffffffffffffffffffffffffffff1673ffffffffffffffffffffffffffffffffffffffff16815260200190815260200160002060008473ffffffffffffffffffffffffffffffffffffffff1673ffffffffffffffffffffffffffffffffffffffff16815260200190815260200160002060006101000a81548160ff0219169083151502179055508173ffffffffffffffffffffffffffffffffffffffff168373ffffffffffffffffffffffffffffffffffffffff167f17307eab39ab6107e8899845ad3d59bd9653f200f220920489ca2b5937696c31836040516120069190612e41565b60405180910390a3505050565b61201e848484611b2b565b61202a84848484612313565b612069576040517f08c379a000000000000000000000000000000000000000000000000000000000815260040161206090612e99565b60405180910390fd5b50505050565b6060600c805461207e906133ce565b80601f01602080910402602001604051908101604052809291908181526020018280546120aa906133ce565b80156120f75780601f106120cc576101008083540402835291602001916120f7565b820191906000526020600020905b8154815290600101906020018083116120da57829003601f168201915b5050505050905090565b60606000821415612149576040518060400160405280600181526020017f300000000000000000000000000000000000000000000000000000000000000081525090506122a9565b600082905060005b6000821461217b57808061216490613431565b915050600a82612174919061324f565b9150612151565b60008167ffffffffffffffff8111156121bd577f4e487b7100000000000000000000000000000000000000000000000000000000600052604160045260246000fd5b6040519080825280601f01601f1916602001820160405280156121ef5781602001600182028036833780820191505090505b5090505b600085146122a25760018261220891906132da565b9150600a8561221791906134a8565b603061222391906131f9565b60f81b81838151811061225f577f4e487b7100000000000000000000000000000000000000000000000000000000600052603260045260246000fd5b60200101907effffffffffffffffffffffffffffffffffffffffffffffffffffffffffffff1916908160001a905350600a8561229b919061324f565b94506121f3565b8093505050505b919050565b505050565b505050565b6122c28383611873565b6122cf6000848484612313565b61230e576040517f08c379a000000000000000000000000000000000000000000000000000000000815260040161230590612e99565b60405180910390fd5b505050565b60006123348473ffffffffffffffffffffffffffffffffffffffff166124aa565b1561249d578373ffffffffffffffffffffffffffffffffffffffff1663150b7a0261235d61179c565b8786866040518563ffffffff1660e01b815260040161237f9493929190612df5565b602060405180830381600087803b15801561239957600080fd5b505af19250505080156123ca57506040513d601f19601f820116820180604052508101906123c79190612926565b60015b61244d573d80600081146123fa576040519150601f19603f3d011682016040523d82523d6000602084013e6123ff565b606091505b50600081511415612445576040517f08c379a000000000000000000000000000000000000000000000000000000000815260040161243c90612e99565b60405180910390fd5b805181602001fd5b63150b7a0260e01b7bffffffffffffffffffffffffffffffffffffffffffffffffffffffff1916817bffffffffffffffffffffffffffffffffffffffffffffffffffffffff1916149150506124a2565b600190505b949350505050565b6000808273ffffffffffffffffffffffffffffffffffffffff163b119050919050565b60006124e06124db84613159565b613134565b905080838252602082019050828560208602820111156124ff57600080fd5b60005b8581101561252f578161251588826125cb565b845260208401935060208301925050600181019050612502565b5050509392505050565b600061254c61254784613185565b613134565b90508281526020810184848401111561256457600080fd5b61256f84828561338c565b509392505050565b60008135905061258681613ad8565b92915050565b600082601f83011261259d57600080fd5b81356125ad8482602086016124cd565b91505092915050565b6000813590506125c581613aef565b92915050565b6000813590506125da81613b06565b92915050565b6000813590506125ef81613b1d565b92915050565b60008151905061260481613b1d565b92915050565b600082601f83011261261b57600080fd5b813561262b848260208601612539565b91505092915050565b60008135905061264381613b34565b92915050565b60006020828403121561265b57600080fd5b600061266984828501612577565b91505092915050565b6000806040838503121561268557600080fd5b600061269385828601612577565b92505060206126a485828601612577565b9150509250929050565b6000806000606084860312156126c357600080fd5b60006126d186828701612577565b93505060206126e286828701612577565b92505060406126f386828701612634565b9150509250925092565b6000806000806080858703121561271357600080fd5b600061272187828801612577565b945050602061273287828801612577565b935050604061274387828801612634565b925050606085013567ffffffffffffffff81111561276057600080fd5b61276c8782880161260a565b91505092959194509250565b60008060006060848603121561278d57600080fd5b600061279b86828701612577565b935050602084013567ffffffffffffffff8111156127b857600080fd5b6127c48682870161258c565b92505060406127d586828701612634565b9150509250925092565b600080604083850312156127f257600080fd5b600061280085828601612577565b9250506020612811858286016125b6565b9150509250929050565b6000806040838503121561282e57600080fd5b600061283c85828601612577565b925050602061284d85828601612634565b9150509250929050565b60006020828403121561286957600080fd5b6000612877848285016125b6565b91505092915050565b60006020828403121561289257600080fd5b60006128a0848285016125cb565b91505092915050565b600080604083850312156128bc57600080fd5b60006128ca858286016125cb565b925050602083013567ffffffffffffffff8111156128e757600080fd5b6128f38582860161258c565b9150509250929050565b60006020828403121561290f57600080fd5b600061291d848285016125e0565b91505092915050565b60006020828403121561293857600080fd5b6000612946848285016125f5565b91505092915050565b60006020828403121561296157600080fd5b600061296f84828501612634565b91505092915050565b6129818161330e565b82525050565b6129986129938261330e565b61347a565b82525050565b6129a781613320565b82525050565b6129b68161332c565b82525050565b6129cd6129c88261332c565b61348c565b82525050565b60006129de826131b6565b6129e881856131cc565b93506129f881856020860161339b565b612a0181613595565b840191505092915050565b6000612a17826131c1565b612a2181856131dd565b9350612a3181856020860161339b565b612a3a81613595565b840191505092915050565b6000612a50826131c1565b612a5a81856131ee565b9350612a6a81856020860161339b565b80840191505092915050565b6000612a836032836131dd565b9150612a8e826135b3565b604082019050919050565b6000612aa66026836131dd565b9150612ab182613602565b604082019050919050565b6000612ac96025836131dd565b9150612ad482613651565b604082019050919050565b6000612aec601c836131dd565b9150612af7826136a0565b602082019050919050565b6000612b0f6024836131dd565b9150612b1a826136c9565b604082019050919050565b6000612b326019836131dd565b9150612b3d82613718565b602082019050919050565b6000612b55602c836131dd565b9150612b6082613741565b604082019050919050565b6000612b786038836131dd565b9150612b8382613790565b604082019050919050565b6000612b9b600f836131dd565b9150612ba6826137df565b602082019050919050565b6000612bbe602a836131dd565b9150612bc982613808565b604082019050919050565b6000612be16029836131dd565b9150612bec82613857565b604082019050919050565b6000612c046020836131dd565b9150612c0f826138a6565b602082019050919050565b6000612c27602c836131dd565b9150612c32826138cf565b604082019050919050565b6000612c4a6005836131ee565b9150612c558261391e565b600582019050919050565b6000612c6d6014836131dd565b9150612c7882613947565b602082019050919050565b6000612c906020836131dd565b9150612c9b82613970565b602082019050919050565b6000612cb3602f836131dd565b9150612cbe82613999565b604082019050919050565b6000612cd66021836131dd565b9150612ce1826139e8565b604082019050919050565b6000612cf9601f836131dd565b9150612d0482613a37565b602082019050919050565b6000612d1c6031836131dd565b9150612d2782613a60565b604082019050919050565b6000612d3f6018836131dd565b9150612d4a82613aaf565b602082019050919050565b612d5e81613382565b82525050565b6000612d708284612987565b60148201915081905092915050565b6000612d8b82856129bc565b602082019150612d9b82846129bc565b6020820191508190509392505050565b6000612db78285612a45565b9150612dc38284612a45565b9150612dce82612c3d565b91508190509392505050565b6000602082019050612def6000830184612978565b92915050565b6000608082019050612e0a6000830187612978565b612e176020830186612978565b612e246040830185612d55565b8181036060830152612e3681846129d3565b905095945050505050565b6000602082019050612e56600083018461299e565b92915050565b6000602082019050612e7160008301846129ad565b92915050565b60006020820190508181036000830152612e918184612a0c565b905092915050565b60006020820190508181036000830152612eb281612a76565b9050919050565b60006020820190508181036000830152612ed281612a99565b9050919050565b60006020820190508181036000830152612ef281612abc565b9050919050565b60006020820190508181036000830152612f1281612adf565b9050919050565b60006020820190508181036000830152612f3281612b02565b9050919050565b60006020820190508181036000830152612f5281612b25565b9050919050565b60006020820190508181036000830152612f7281612b48565b9050919050565b60006020820190508181036000830152612f9281612b6b565b9050919050565b60006020820190508181036000830152612fb281612b8e565b9050919050565b60006020820190508181036000830152612fd281612bb1565b9050919050565b60006020820190508181036000830152612ff281612bd4565b9050919050565b6000602082019050818103600083015261301281612bf7565b9050919050565b6000602082019050818103600083015261303281612c1a565b9050919050565b6000602082019050818103600083015261305281612c60565b9050919050565b6000602082019050818103600083015261307281612c83565b9050919050565b6000602082019050818103600083015261309281612ca6565b9050919050565b600060208201905081810360008301526130b281612cc9565b9050919050565b600060208201905081810360008301526130d281612cec565b9050919050565b600060208201905081810360008301526130f281612d0f565b9050919050565b6000602082019050818103600083015261311281612d32565b9050919050565b600060208201905061312e6000830184612d55565b92915050565b600061313e61314f565b905061314a8282613400565b919050565b6000604051905090565b600067ffffffffffffffff82111561317457613173613566565b5b602082029050602081019050919050565b600067ffffffffffffffff8211156131a05761319f613566565b5b6131a982613595565b9050602081019050919050565b600081519050919050565b600081519050919050565b600082825260208201905092915050565b600082825260208201905092915050565b600081905092915050565b600061320482613382565b915061320f83613382565b9250827fffffffffffffffffffffffffffffffffffffffffffffffffffffffffffffffff03821115613244576132436134d9565b5b828201905092915050565b600061325a82613382565b915061326583613382565b92508261327557613274613508565b5b828204905092915050565b600061328b82613382565b915061329683613382565b9250817fffffffffffffffffffffffffffffffffffffffffffffffffffffffffffffffff04831182151516156132cf576132ce6134d9565b5b828202905092915050565b60006132e582613382565b91506132f083613382565b925082821015613303576133026134d9565b5b828203905092915050565b600061331982613362565b9050919050565b60008115159050919050565b6000819050919050565b60007fffffffff0000000000000000000000000000000000000000000000000000000082169050919050565b600073ffffffffffffffffffffffffffffffffffffffff82169050919050565b6000819050919050565b82818337600083830152505050565b60005b838110156133b957808201518184015260208101905061339e565b838111156133c8576000848401525b50505050565b600060028204905060018216806133e657607f821691505b602082108114156133fa576133f9613537565b5b50919050565b61340982613595565b810181811067ffffffffffffffff8211171561342857613427613566565b5b80604052505050565b600061343c82613382565b91507fffffffffffffffffffffffffffffffffffffffffffffffffffffffffffffffff82141561346f5761346e6134d9565b5b600182019050919050565b600061348582613496565b9050919050565b6000819050919050565b60006134a1826135a6565b9050919050565b60006134b382613382565b91506134be83613382565b9250826134ce576134cd613508565b5b828206905092915050565b7f4e487b7100000000000000000000000000000000000000000000000000000000600052601160045260246000fd5b7f4e487b7100000000000000000000000000000000000000000000000000000000600052601260045260246000fd5b7f4e487b7100000000000000000000000000000000000000000000000000000000600052602260045260246000fd5b7f4e487b7100000000000000000000000000000000000000000000000000000000600052604160045260246000fd5b6000601f19601f8301169050919050565b60008160601b9050919050565b7f4552433732313a207472616e7366657220746f206e6f6e20455243373231526560008201527f63656976657220696d706c656d656e7465720000000000000000000000000000602082015250565b7f4f776e61626c653a206e6577206f776e657220697320746865207a65726f206160008201527f6464726573730000000000000000000000000000000000000000000000000000602082015250565b7f4552433732313a207472616e736665722066726f6d20696e636f72726563742060008201527f6f776e6572000000000000000000000000000000000000000000000000000000602082015250565b7f4552433732313a20746f6b656e20616c7265616479206d696e74656400000000600082015250565b7f4552433732313a207472616e7366657220746f20746865207a65726f2061646460008201527f7265737300000000000000000000000000000000000000000000000000000000602082015250565b7f4552433732313a20617070726f766520746f2063616c6c657200000000000000600082015250565b7f4552433732313a206f70657261746f7220717565727920666f72206e6f6e657860008201527f697374656e7420746f6b656e0000000000000000000000000000000000000000602082015250565b7f4552433732313a20617070726f76652063616c6c6572206973206e6f74206f7760008201527f6e6572206e6f7220617070726f76656420666f7220616c6c0000000000000000602082015250565b7f4e6f742077686974656c69737465640000000000000000000000000000000000600082015250565b7f4552433732313a2062616c616e636520717565727920666f7220746865207a6560008201527f726f206164647265737300000000000000000000000000000000000000000000602082015250565b7f4552433732313a206f776e657220717565727920666f72206e6f6e657869737460008201527f656e7420746f6b656e0000000000000000000000000000000000000000000000602082015250565b7f4552433732313a206d696e7420746f20746865207a65726f2061646472657373600082015250565b7f4552433732313a20617070726f76656420717565727920666f72206e6f6e657860008201527f697374656e7420746f6b656e0000000000000000000000000000000000000000602082015250565b7f2e6a736f6e000000000000000000000000000000000000000000000000000000600082015250565b7f4d6f6e6579206973206e6f7420656e6f75676821000000000000000000000000600082015250565b7f4f776e61626c653a2063616c6c6572206973206e6f7420746865206f776e6572600082015250565b7f4552433732314d657461646174613a2055524920717565727920666f72206e6f60008201527f6e6578697374656e7420746f6b656e0000000000000000000000000000000000602082015250565b7f4552433732313a20617070726f76616c20746f2063757272656e74206f776e6560008201527f7200000000000000000000000000000000000000000000000000000000000000602082015250565b7f5075626c6963206d696e74206973206e6f742073746172746564207965742100600082015250565b7f4552433732313a207472616e736665722063616c6c6572206973206e6f74206f60008201527f776e6572206e6f7220617070726f766564000000000000000000000000000000602082015250565b7f50726573616c65206973206e6f7420737570706f746564210000000000000000600082015250565b613ae18161330e565b8114613aec57600080fd5b50565b613af881613320565b8114613b0357600080fd5b50565b613b0f8161332c565b8114613b1a57600080fd5b50565b613b2681613336565b8114613b3157600080fd5b50565b613b3d81613382565b8114613b4857600080fd5b5056fea26469706673582212207dc66891ac4923bfc4c5c3b823d28c84df1fc7f53348f594f677274d7de7563364736f6c6343000804003368747470733a2f2f6b616e657373616e66742e6d7970696e6174612e636c6f75642f697066732f516d546f7676584637414365315554635761334a755475574c324a4a346e454c534579795753664d5450637473502f",
  "linkReferences": {},
  "deployedLinkReferences": {}
}