{
  "_format": "hh-sol-artifact-1",
  "contractName": "KanessaNFT",
  "sourceName": "contracts/Kanessa.sol",
  "abi": [
    {
      "inputs": [],
      "stateMutability": "nonpayable",
      "type": "constructor"
    },
    {
      "anonymous": false,
      "inputs": [
        {
          "indexed": true,
          "internalType": "address",
          "name": "owner",
          "type": "address"
        },
        {
          "indexed": true,
          "internalType": "address",
          "name": "approved",
          "type": "address"
        },
        {
          "indexed": true,
          "internalType": "uint256",
          "name": "tokenId",
          "type": "uint256"
        }
      ],
      "name": "Approval",
      "type": "event"
    },
    {
      "anonymous": false,
      "inputs": [
        {
          "indexed": true,
          "internalType": "address",
          "name": "owner",
          "type": "address"
        },
        {
          "indexed": true,
          "internalType": "address",
          "name": "operator",
          "type": "address"
        },
        {
          "indexed": false,
          "internalType": "bool",
          "name": "approved",
          "type": "bool"
        }
      ],
      "name": "ApprovalForAll",
      "type": "event"
    },
    {
      "anonymous": false,
      "inputs": [
        {
          "indexed": false,
          "internalType": "bool",
          "name": "enableSale",
          "type": "bool"
        }
      ],
      "name": "EnableSaleChanged",
      "type": "event"
    },
    {
      "anonymous": false,
      "inputs": [
        {
          "indexed": false,
          "internalType": "uint256",
          "name": "_limit",
          "type": "uint256"
        }
      ],
      "name": "LimitPerWalletChanged",
      "type": "event"
    },
    {
      "anonymous": false,
      "inputs": [
        {
          "indexed": false,
          "internalType": "uint256",
          "name": "_maxSupply",
          "type": "uint256"
        }
      ],
      "name": "MaxSupplyChanged",
      "type": "event"
    },
    {
      "anonymous": false,
      "inputs": [
        {
          "indexed": true,
          "internalType": "address",
          "name": "_to",
          "type": "address"
        },
        {
          "indexed": false,
          "internalType": "uint256",
          "name": "_number",
          "type": "uint256"
        }
      ],
      "name": "MintNFT",
      "type": "event"
    },
    {
      "anonymous": false,
      "inputs": [
        {
          "indexed": true,
          "internalType": "address",
          "name": "previousOwner",
          "type": "address"
        },
        {
          "indexed": true,
          "internalType": "address",
          "name": "newOwner",
          "type": "address"
        }
      ],
      "name": "OwnershipTransferred",
      "type": "event"
    },
    {
      "anonymous": false,
      "inputs": [
        {
          "indexed": true,
          "internalType": "address",
          "name": "from",
          "type": "address"
        },
        {
          "indexed": true,
          "internalType": "address",
          "name": "to",
          "type": "address"
        },
        {
          "indexed": true,
          "internalType": "uint256",
          "name": "tokenId",
          "type": "uint256"
        }
      ],
      "name": "Transfer",
      "type": "event"
    },
    {
      "anonymous": false,
      "inputs": [
        {
          "indexed": false,
          "internalType": "bool",
          "name": "isWhiteList",
          "type": "bool"
        }
      ],
      "name": "WhitelistModeChanged",
      "type": "event"
    },
    {
      "inputs": [
        {
          "internalType": "address",
          "name": "to",
          "type": "address"
        },
        {
          "internalType": "uint256",
          "name": "tokenId",
          "type": "uint256"
        }
      ],
      "name": "approve",
      "outputs": [],
      "stateMutability": "nonpayable",
      "type": "function"
    },
    {
      "inputs": [
        {
          "internalType": "address",
          "name": "owner",
          "type": "address"
        }
      ],
      "name": "balanceOf",
      "outputs": [
        {
          "internalType": "uint256",
          "name": "",
          "type": "uint256"
        }
      ],
      "stateMutability": "view",
      "type": "function"
    },
    {
      "inputs": [],
      "name": "count",
      "outputs": [
        {
          "internalType": "uint256",
          "name": "",
          "type": "uint256"
        }
      ],
      "stateMutability": "view",
      "type": "function"
    },
    {
      "inputs": [
        {
          "internalType": "uint256",
          "name": "tokenId",
          "type": "uint256"
        }
      ],
      "name": "getApproved",
      "outputs": [
        {
          "internalType": "address",
          "name": "",
          "type": "address"
        }
      ],
      "stateMutability": "view",
      "type": "function"
    },
    {
      "inputs": [],
      "name": "getEnableSale",
      "outputs": [
        {
          "internalType": "bool",
          "name": "",
          "type": "bool"
        }
      ],
      "stateMutability": "view",
      "type": "function"
    },
    {
      "inputs": [],
      "name": "getLimitPerWallet",
      "outputs": [
        {
          "internalType": "uint256",
          "name": "",
          "type": "uint256"
        }
      ],
      "stateMutability": "view",
      "type": "function"
    },
    {
      "inputs": [
        {
          "internalType": "address",
          "name": "owner",
          "type": "address"
        },
        {
          "internalType": "address",
          "name": "operator",
          "type": "address"
        }
      ],
      "name": "isApprovedForAll",
      "outputs": [
        {
          "internalType": "bool",
          "name": "",
          "type": "bool"
        }
      ],
      "stateMutability": "view",
      "type": "function"
    },
    {
      "inputs": [
        {
          "internalType": "address",
          "name": "to",
          "type": "address"
        },
        {
          "internalType": "uint256",
          "name": "number",
          "type": "uint256"
        }
      ],
      "name": "mintAdmin",
      "outputs": [],
      "stateMutability": "nonpayable",
      "type": "function"
    },
    {
      "inputs": [],
      "name": "name",
      "outputs": [
        {
          "internalType": "string",
          "name": "",
          "type": "string"
        }
      ],
      "stateMutability": "view",
      "type": "function"
    },
    {
      "inputs": [],
      "name": "owner",
      "outputs": [
        {
          "internalType": "address",
          "name": "",
          "type": "address"
        }
      ],
      "stateMutability": "view",
      "type": "function"
    },
    {
      "inputs": [
        {
          "internalType": "uint256",
          "name": "tokenId",
          "type": "uint256"
        }
      ],
      "name": "ownerOf",
      "outputs": [
        {
          "internalType": "address",
          "name": "",
          "type": "address"
        }
      ],
      "stateMutability": "view",
      "type": "function"
    },
    {
      "inputs": [
        {
          "internalType": "address",
          "name": "recipiant",
          "type": "address"
        },
        {
          "internalType": "uint256",
          "name": "number",
          "type": "uint256"
        }
      ],
      "name": "payToMint",
      "outputs": [],
      "stateMutability": "payable",
      "type": "function"
    },
    {
      "inputs": [
        {
          "internalType": "address",
          "name": "recipiant",
          "type": "address"
        },
        {
          "internalType": "bytes32[]",
          "name": "proof",
          "type": "bytes32[]"
        },
        {
          "internalType": "uint256",
          "name": "number",
          "type": "uint256"
        }
      ],
      "name": "payToWhiteMint",
      "outputs": [],
      "stateMutability": "payable",
      "type": "function"
    },
    {
      "inputs": [],
      "name": "price",
      "outputs": [
        {
          "internalType": "uint256",
          "name": "",
          "type": "uint256"
        }
      ],
      "stateMutability": "view",
      "type": "function"
    },
    {
      "inputs": [],
      "name": "renounceOwnership",
      "outputs": [],
      "stateMutability": "nonpayable",
      "type": "function"
    },
    {
      "inputs": [
        {
          "internalType": "address",
          "name": "from",
          "type": "address"
        },
        {
          "internalType": "address",
          "name": "to",
          "type": "address"
        },
        {
          "internalType": "uint256",
          "name": "tokenId",
          "type": "uint256"
        }
      ],
      "name": "safeTransferFrom",
      "outputs": [],
      "stateMutability": "nonpayable",
      "type": "function"
    },
    {
      "inputs": [
        {
          "internalType": "address",
          "name": "from",
          "type": "address"
        },
        {
          "internalType": "address",
          "name": "to",
          "type": "address"
        },
        {
          "internalType": "uint256",
          "name": "tokenId",
          "type": "uint256"
        },
        {
          "internalType": "bytes",
          "name": "_data",
          "type": "bytes"
        }
      ],
      "name": "safeTransferFrom",
      "outputs": [],
      "stateMutability": "nonpayable",
      "type": "function"
    },
    {
      "inputs": [
        {
          "internalType": "address",
          "name": "operator",
          "type": "address"
        },
        {
          "internalType": "bool",
          "name": "approved",
          "type": "bool"
        }
      ],
      "name": "setApprovalForAll",
      "outputs": [],
      "stateMutability": "nonpayable",
      "type": "function"
    },
    {
      "inputs": [
        {
          "internalType": "bool",
          "name": "_enableSale",
          "type": "bool"
        }
      ],
      "name": "setEnableSale",
      "outputs": [],
      "stateMutability": "nonpayable",
      "type": "function"
    },
    {
      "inputs": [
        {
          "internalType": "uint256",
          "name": "_limit",
          "type": "uint256"
        }
      ],
      "name": "setLimitPerWallet",
      "outputs": [],
      "stateMutability": "nonpayable",
      "type": "function"
    },
    {
      "inputs": [
        {
          "internalType": "uint256",
          "name": "_max",
          "type": "uint256"
        }
      ],
      "name": "setMaxSupply",
      "outputs": [],
      "stateMutability": "nonpayable",
      "type": "function"
    },
    {
      "inputs": [
        {
          "internalType": "bool",
          "name": "mode",
          "type": "bool"
        }
      ],
      "name": "setWhiteListMode",
      "outputs": [],
      "stateMutability": "nonpayable",
      "type": "function"
    },
    {
      "inputs": [
        {
          "internalType": "bytes32",
          "name": "root",
          "type": "bytes32"
        }
      ],
      "name": "setWhitelistRoot",
      "outputs": [],
      "stateMutability": "nonpayable",
      "type": "function"
    },
    {
      "inputs": [
        {
          "internalType": "bytes4",
          "name": "interfaceId",
          "type": "bytes4"
        }
      ],
      "name": "supportsInterface",
      "outputs": [
        {
          "internalType": "bool",
          "name": "",
          "type": "bool"
        }
      ],
      "stateMutability": "view",
      "type": "function"
    },
    {
      "inputs": [],
      "name": "symbol",
      "outputs": [
        {
          "internalType": "string",
          "name": "",
          "type": "string"
        }
      ],
      "stateMutability": "view",
      "type": "function"
    },
    {
      "inputs": [
        {
          "internalType": "uint256",
          "name": "tokenId",
          "type": "uint256"
        }
      ],
      "name": "tokenURI",
      "outputs": [
        {
          "internalType": "string",
          "name": "",
          "type": "string"
        }
      ],
      "stateMutability": "view",
      "type": "function"
    },
    {
      "inputs": [],
      "name": "totalCount",
      "outputs": [
        {
          "internalType": "uint256",
          "name": "",
          "type": "uint256"
        }
      ],
      "stateMutability": "view",
      "type": "function"
    },
    {
      "inputs": [],
      "name": "totalSupply",
      "outputs": [
        {
          "internalType": "uint256",
          "name": "",
          "type": "uint256"
        }
      ],
      "stateMutability": "view",
      "type": "function"
    },
    {
      "inputs": [
        {
          "internalType": "address",
          "name": "from",
          "type": "address"
        },
        {
          "internalType": "address",
          "name": "to",
          "type": "address"
        },
        {
          "internalType": "uint256",
          "name": "tokenId",
          "type": "uint256"
        }
      ],
      "name": "transferFrom",
      "outputs": [],
      "stateMutability": "nonpayable",
      "type": "function"
    },
    {
      "inputs": [
        {
          "internalType": "address",
          "name": "newOwner",
          "type": "address"
        }
      ],
      "name": "transferOwnership",
      "outputs": [],
      "stateMutability": "nonpayable",
      "type": "function"
    },
    {
      "inputs": [
        {
          "internalType": "bytes32",
          "name": "leaf",
          "type": "bytes32"
        },
        {
          "internalType": "bytes32[]",
          "name": "proof",
          "type": "bytes32[]"
        }
      ],
      "name": "verifyWhitelist",
      "outputs": [
        {
          "internalType": "bool",
          "name": "",
          "type": "bool"
        }
      ],
      "stateMutability": "view",
      "type": "function"
    },
    {
      "inputs": [],
      "name": "whitelistMode",
      "outputs": [
        {
          "internalType": "bool",
          "name": "",
          "type": "bool"
        }
      ],
      "stateMutability": "view",
      "type": "function"
    },
    {
      "inputs": [],
      "name": "whitelistRoot",
      "outputs": [
        {
          "internalType": "bytes32",
          "name": "",
          "type": "bytes32"
        }
      ],
      "stateMutability": "view",
      "type": "function"
    },
    {
      "inputs": [],
      "name": "withdraw",
      "outputs": [],
      "stateMutability": "nonpayable",
      "type": "function"
    }
  ],
  "bytecode": "0x608060405266470de4df820000600a5566b1a2bc2ec50000600b556000600d60006101000a81548160ff0219169083151502179055506103e8600e556005600f553480156200004d57600080fd5b506040518060400160405280601c81526020017f4b616e657373614e4654202d20506c75732053697a65204c61647929000000008152506040518060400160405280600381526020017f50534c00000000000000000000000000000000000000000000000000000000008152508160009080519060200190620000d292919062000259565b508060019080519060200190620000eb92919062000259565b5050506200010e620001026200018b60201b60201c565b6200019360201b60201c565b7f7036c18b7148a5450c499d5c83cf6dac05902701bbbca399f37345095ecf0dcb60001b6009819055506040518060800160405280605681526020016200472760569139600c90805190602001906200016992919062000259565b506001600860006101000a81548160ff0219169083151502179055506200036e565b600033905090565b6000600660009054906101000a900473ffffffffffffffffffffffffffffffffffffffff16905081600660006101000a81548173ffffffffffffffffffffffffffffffffffffffff021916908373ffffffffffffffffffffffffffffffffffffffff1602179055508173ffffffffffffffffffffffffffffffffffffffff168173ffffffffffffffffffffffffffffffffffffffff167f8be0079c531659141344cd1fd0a4f28419497f9722a3daafe3b4186f6b6457e060405160405180910390a35050565b828054620002679062000309565b90600052602060002090601f0160209004810192826200028b5760008555620002d7565b82601f10620002a657805160ff1916838001178555620002d7565b82800160010185558215620002d7579182015b82811115620002d6578251825591602001919060010190620002b9565b5b509050620002e69190620002ea565b5090565b5b8082111562000305576000816000905550600101620002eb565b5090565b600060028204905060018216806200032257607f821691505b602082108114156200033957620003386200033f565b5b50919050565b7f4e487b7100000000000000000000000000000000000000000000000000000000600052602260045260246000fd5b6143a9806200037e6000396000f3fe6080604052600436106101f95760003560e01c806363c766b91161010d57806395d89b41116100a0578063c3a719991161006f578063c3a71999146106df578063c87b56dd14610708578063e985e9c514610745578063f2fde38b14610782578063f5aa406d146107ab576101f9565b806395d89b4114610637578063a035b1fe14610662578063a22cb4651461068d578063b88d4fde146106b6576101f9565b806370c757ec116100dc57806370c757ec146105a1578063715018a6146105cc57806382562177146105e35780638da5cb5b1461060c576101f9565b806363c766b9146104f657806365b31a661461051f5780636f8b44b01461053b57806370a0823114610564576101f9565b806323b872dd116101905780633735ba4f1161015f5780633735ba4f14610423578063386bfc981461044e5780633ccfd60b1461047957806342842e0e146104905780636352211e146104b9576101f9565b806323b872dd14610367578063269004a214610390578063329ea90d146103bb57806334eafb11146103f8576101f9565b8063095ea7b3116101cc578063095ea7b3146102ce57806318160ddd146102f75780631aa6fa0b146103225780631e23645f1461033e576101f9565b806301ffc9a7146101fe57806306661abd1461023b57806306fdde0314610266578063081812fc14610291575b600080fd5b34801561020a57600080fd5b5061022560048036038101906102209190612f75565b6107d4565b6040516102329190613545565b60405180910390f35b34801561024757600080fd5b506102506108b6565b60405161025d919061389d565b60405180910390f35b34801561027257600080fd5b5061027b6108c7565b604051610288919061357b565b60405180910390f35b34801561029d57600080fd5b506102b860048036038101906102b39190612fc7565b610959565b6040516102c591906134de565b60405180910390f35b3480156102da57600080fd5b506102f560048036038101906102f09190612e93565b6109de565b005b34801561030357600080fd5b5061030c610af6565b604051610319919061389d565b60405180910390f35b61033c60048036038101906103379190612e93565b610b07565b005b34801561034a57600080fd5b5061036560048036038101906103609190612ecf565b610d3e565b005b34801561037357600080fd5b5061038e60048036038101906103899190612d26565b610e0e565b005b34801561039c57600080fd5b506103a5610e6e565b6040516103b2919061389d565b60405180910390f35b3480156103c757600080fd5b506103e260048036038101906103dd9190612f21565b610e78565b6040516103ef9190613545565b60405180910390f35b34801561040457600080fd5b5061040d610f56565b60405161041a919061389d565b60405180910390f35b34801561042f57600080fd5b50610438610f60565b6040516104459190613545565b60405180910390f35b34801561045a57600080fd5b50610463610f77565b6040516104709190613560565b60405180910390f35b34801561048557600080fd5b5061048e610f81565b005b34801561049c57600080fd5b506104b760048036038101906104b29190612d26565b611046565b005b3480156104c557600080fd5b506104e060048036038101906104db9190612fc7565b611066565b6040516104ed91906134de565b60405180910390f35b34801561050257600080fd5b5061051d60048036038101906105189190612fc7565b611118565b005b61053960048036038101906105349190612df0565b6111d7565b005b34801561054757600080fd5b50610562600480360381019061055d9190612fc7565b611465565b005b34801561057057600080fd5b5061058b60048036038101906105869190612cc1565b611524565b604051610598919061389d565b60405180910390f35b3480156105ad57600080fd5b506105b66115dc565b6040516105c39190613545565b60405180910390f35b3480156105d857600080fd5b506105e16115f3565b005b3480156105ef57600080fd5b5061060a60048036038101906106059190612ecf565b61167b565b005b34801561061857600080fd5b5061062161175a565b60405161062e91906134de565b60405180910390f35b34801561064357600080fd5b5061064c611784565b604051610659919061357b565b60405180910390f35b34801561066e57600080fd5b50610677611816565b604051610684919061389d565b60405180910390f35b34801561069957600080fd5b506106b460048036038101906106af9190612e57565b611840565b005b3480156106c257600080fd5b506106dd60048036038101906106d89190612d75565b611856565b005b3480156106eb57600080fd5b5061070660048036038101906107019190612e93565b6118b8565b005b34801561071457600080fd5b5061072f600480360381019061072a9190612fc7565b611a77565b60405161073c919061357b565b60405180910390f35b34801561075157600080fd5b5061076c60048036038101906107679190612cea565b611b1e565b6040516107799190613545565b60405180910390f35b34801561078e57600080fd5b506107a960048036038101906107a49190612cc1565b611bb2565b005b3480156107b757600080fd5b506107d260048036038101906107cd9190612ef8565b611caa565b005b60007f80ac58cd000000000000000000000000000000000000000000000000000000007bffffffffffffffffffffffffffffffffffffffffffffffffffffffff1916827bffffffffffffffffffffffffffffffffffffffffffffffffffffffff1916148061089f57507f5b5e139f000000000000000000000000000000000000000000000000000000007bffffffffffffffffffffffffffffffffffffffffffffffffffffffff1916827bffffffffffffffffffffffffffffffffffffffffffffffffffffffff1916145b806108af57506108ae82611d30565b5b9050919050565b60006108c26007611d9a565b905090565b6060600080546108d690613b52565b80601f016020809104026020016040519081016040528092919081815260200182805461090290613b52565b801561094f5780601f106109245761010080835404028352916020019161094f565b820191906000526020600020905b81548152906001019060200180831161093257829003601f168201915b5050505050905090565b600061096482611da8565b6109a3576040517f08c379a000000000000000000000000000000000000000000000000000000000815260040161099a9061379d565b60405180910390fd5b6004600083815260200190815260200160002060009054906101000a900473ffffffffffffffffffffffffffffffffffffffff169050919050565b60006109e982611066565b90508073ffffffffffffffffffffffffffffffffffffffff168373ffffffffffffffffffffffffffffffffffffffff161415610a5a576040517f08c379a0000000000000000000000000000000000000000000000000000000008152600401610a519061381d565b60405180910390fd5b8073ffffffffffffffffffffffffffffffffffffffff16610a79611e14565b73ffffffffffffffffffffffffffffffffffffffff161480610aa85750610aa781610aa2611e14565b611b1e565b5b610ae7576040517f08c379a0000000000000000000000000000000000000000000000000000000008152600401610ade906136bd565b60405180910390fd5b610af18383611e1c565b505050565b6000610b026007611d9a565b905090565b600d60009054906101000a900460ff16610b56576040517f08c379a0000000000000000000000000000000000000000000000000000000008152600401610b4d9061369d565b60405180910390fd5b600860009054906101000a900460ff1615610ba6576040517f08c379a0000000000000000000000000000000000000000000000000000000008152600401610b9d9061383d565b60405180910390fd5b80610baf611816565b610bb99190613a04565b341015610bfb576040517f08c379a0000000000000000000000000000000000000000000000000000000008152600401610bf2906137bd565b60405180910390fd5b600e5481610c07610af6565b610c11919061397d565b1115610c52576040517f08c379a0000000000000000000000000000000000000000000000000000000008152600401610c499061375d565b60405180910390fd5b600f5481610c5f84611524565b610c69919061397d565b1115610caa576040517f08c379a0000000000000000000000000000000000000000000000000000000008152600401610ca19061359d565b60405180910390fd5b60005b81811015610ceb57610cbf6007611ed5565b6000610ccb6007611d9a565b9050610cd78482611eeb565b508080610ce390613bb5565b915050610cad565b508173ffffffffffffffffffffffffffffffffffffffff167f1f89f147a58d1673945cf416187db98efc8208408c011b91887acd59fd8523c382604051610d32919061389d565b60405180910390a25050565b610d46611e14565b73ffffffffffffffffffffffffffffffffffffffff16610d6461175a565b73ffffffffffffffffffffffffffffffffffffffff1614610dba576040517f08c379a0000000000000000000000000000000000000000000000000000000008152600401610db1906137dd565b60405180910390fd5b80600860006101000a81548160ff0219169083151502179055507f9094b093988cc7e117334d86adc047e84bbc414f34eb87fe4dd14fc3f623733d81604051610e039190613545565b60405180910390a150565b610e1f610e19611e14565b826120c5565b610e5e576040517f08c379a0000000000000000000000000000000000000000000000000000000008152600401610e559061385d565b60405180910390fd5b610e698383836121a3565b505050565b6000600f54905090565b60008083905060005b8351811015610f47576000848281518110610ec5577f4e487b7100000000000000000000000000000000000000000000000000000000600052603260045260246000fd5b6020026020010151905080831015610f07578281604051602001610eea929190613483565b604051602081830303815290604052805190602001209250610f33565b8083604051602001610f1a929190613483565b6040516020818303038152906040528051906020012092505b508080610f3f90613bb5565b915050610e81565b50600954811491505092915050565b6000600e54905090565b6000600d60009054906101000a900460ff16905090565b6000600954905090565b610f89611e14565b73ffffffffffffffffffffffffffffffffffffffff16610fa761175a565b73ffffffffffffffffffffffffffffffffffffffff1614610ffd576040517f08c379a0000000000000000000000000000000000000000000000000000000008152600401610ff4906137dd565b60405180910390fd5b3373ffffffffffffffffffffffffffffffffffffffff166108fc479081150290604051600060405180830381858888f19350505050158015611043573d6000803e3d6000fd5b50565b61106183838360405180602001604052806000815250611856565b505050565b6000806002600084815260200190815260200160002060009054906101000a900473ffffffffffffffffffffffffffffffffffffffff169050600073ffffffffffffffffffffffffffffffffffffffff168173ffffffffffffffffffffffffffffffffffffffff16141561110f576040517f08c379a00000000000000000000000000000000000000000000000000000000081526004016111069061371d565b60405180910390fd5b80915050919050565b611120611e14565b73ffffffffffffffffffffffffffffffffffffffff1661113e61175a565b73ffffffffffffffffffffffffffffffffffffffff1614611194576040517f08c379a000000000000000000000000000000000000000000000000000000000815260040161118b906137dd565b60405180910390fd5b80600f819055507fe0b266339905078959f2a9dbe97d2e407f6fa9ed312450a2b262f37e1ace93eb600f546040516111cc919061389d565b60405180910390a150565b600d60009054906101000a900460ff16611226576040517f08c379a000000000000000000000000000000000000000000000000000000000815260040161121d9061369d565b60405180910390fd5b600860009054906101000a900460ff16611275576040517f08c379a000000000000000000000000000000000000000000000000000000000815260040161126c9061387d565b60405180910390fd5b60006112896112838561240a565b84610e78565b9050806112cb576040517f08c379a00000000000000000000000000000000000000000000000000000000081526004016112c2906136dd565b60405180910390fd5b600e54826112d7610af6565b6112e1919061397d565b1115611322576040517f08c379a00000000000000000000000000000000000000000000000000000000081526004016113199061375d565b60405180910390fd5b600f548261132f86611524565b611339919061397d565b111561137a576040517f08c379a00000000000000000000000000000000000000000000000000000000081526004016113719061359d565b60405180910390fd5b81611383611816565b61138d9190613a04565b3410156113cf576040517f08c379a00000000000000000000000000000000000000000000000000000000081526004016113c6906137bd565b60405180910390fd5b60005b82811015611410576113e46007611ed5565b60006113f06007611d9a565b90506113fc8682611eeb565b50808061140890613bb5565b9150506113d2565b508373ffffffffffffffffffffffffffffffffffffffff167f1f89f147a58d1673945cf416187db98efc8208408c011b91887acd59fd8523c383604051611457919061389d565b60405180910390a250505050565b61146d611e14565b73ffffffffffffffffffffffffffffffffffffffff1661148b61175a565b73ffffffffffffffffffffffffffffffffffffffff16146114e1576040517f08c379a00000000000000000000000000000000000000000000000000000000081526004016114d8906137dd565b60405180910390fd5b80600e819055507f28a10a2e0b5582da7164754cb994f6214b8af6aa7f7e003305fbc09e7106c513600e54604051611519919061389d565b60405180910390a150565b60008073ffffffffffffffffffffffffffffffffffffffff168273ffffffffffffffffffffffffffffffffffffffff161415611595576040517f08c379a000000000000000000000000000000000000000000000000000000000815260040161158c906136fd565b60405180910390fd5b600360008373ffffffffffffffffffffffffffffffffffffffff1673ffffffffffffffffffffffffffffffffffffffff168152602001908152602001600020549050919050565b6000600860009054906101000a900460ff16905090565b6115fb611e14565b73ffffffffffffffffffffffffffffffffffffffff1661161961175a565b73ffffffffffffffffffffffffffffffffffffffff161461166f576040517f08c379a0000000000000000000000000000000000000000000000000000000008152600401611666906137dd565b60405180910390fd5b611679600061243a565b565b611683611e14565b73ffffffffffffffffffffffffffffffffffffffff166116a161175a565b73ffffffffffffffffffffffffffffffffffffffff16146116f7576040517f08c379a00000000000000000000000000000000000000000000000000000000081526004016116ee906137dd565b60405180910390fd5b80600d60006101000a81548160ff0219169083151502179055507fbb3b38dc7072e12250e00261ff517ab5fe3bb4975e91ab242bac048b7090ba20600d60009054906101000a900460ff1660405161174f9190613545565b60405180910390a150565b6000600660009054906101000a900473ffffffffffffffffffffffffffffffffffffffff16905090565b60606001805461179390613b52565b80601f01602080910402602001604051908101604052809291908181526020018280546117bf90613b52565b801561180c5780601f106117e15761010080835404028352916020019161180c565b820191906000526020600020905b8154815290600101906020018083116117ef57829003601f168201915b5050505050905090565b6000600860009054906101000a900460ff161561183757600a54905061183d565b600b5490505b90565b61185261184b611e14565b8383612500565b5050565b611867611861611e14565b836120c5565b6118a6576040517f08c379a000000000000000000000000000000000000000000000000000000000815260040161189d9061385d565b60405180910390fd5b6118b28484848461266d565b50505050565b6118c0611e14565b73ffffffffffffffffffffffffffffffffffffffff166118de61175a565b73ffffffffffffffffffffffffffffffffffffffff1614611934576040517f08c379a000000000000000000000000000000000000000000000000000000000815260040161192b906137dd565b60405180910390fd5b600e5481611940610af6565b61194a919061397d565b111561198b576040517f08c379a00000000000000000000000000000000000000000000000000000000081526004016119829061377d565b60405180910390fd5b600f548161199884611524565b6119a2919061397d565b11156119e3576040517f08c379a00000000000000000000000000000000000000000000000000000000081526004016119da9061359d565b60405180910390fd5b60005b81811015611a24576119f86007611ed5565b6000611a046007611d9a565b9050611a1084826126c9565b508080611a1c90613bb5565b9150506119e6565b508173ffffffffffffffffffffffffffffffffffffffff167f1f89f147a58d1673945cf416187db98efc8208408c011b91887acd59fd8523c382604051611a6b919061389d565b60405180910390a25050565b6060611a8282611da8565b611ac1576040517f08c379a0000000000000000000000000000000000000000000000000000000008152600401611ab8906137fd565b60405180910390fd5b6000611acb6126e7565b90506000815111611aeb5760405180602001604052806000815250611b16565b80611af584612779565b604051602001611b069291906134af565b6040516020818303038152906040525b915050919050565b6000600560008473ffffffffffffffffffffffffffffffffffffffff1673ffffffffffffffffffffffffffffffffffffffff16815260200190815260200160002060008373ffffffffffffffffffffffffffffffffffffffff1673ffffffffffffffffffffffffffffffffffffffff16815260200190815260200160002060009054906101000a900460ff16905092915050565b611bba611e14565b73ffffffffffffffffffffffffffffffffffffffff16611bd861175a565b73ffffffffffffffffffffffffffffffffffffffff1614611c2e576040517f08c379a0000000000000000000000000000000000000000000000000000000008152600401611c25906137dd565b60405180910390fd5b600073ffffffffffffffffffffffffffffffffffffffff168173ffffffffffffffffffffffffffffffffffffffff161415611c9e576040517f08c379a0000000000000000000000000000000000000000000000000000000008152600401611c95906135dd565b60405180910390fd5b611ca78161243a565b50565b611cb2611e14565b73ffffffffffffffffffffffffffffffffffffffff16611cd061175a565b73ffffffffffffffffffffffffffffffffffffffff1614611d26576040517f08c379a0000000000000000000000000000000000000000000000000000000008152600401611d1d906137dd565b60405180910390fd5b8060098190555050565b60007f01ffc9a7000000000000000000000000000000000000000000000000000000007bffffffffffffffffffffffffffffffffffffffffffffffffffffffff1916827bffffffffffffffffffffffffffffffffffffffffffffffffffffffff1916149050919050565b600081600001549050919050565b60008073ffffffffffffffffffffffffffffffffffffffff166002600084815260200190815260200160002060009054906101000a900473ffffffffffffffffffffffffffffffffffffffff1673ffffffffffffffffffffffffffffffffffffffff1614159050919050565b600033905090565b816004600083815260200190815260200160002060006101000a81548173ffffffffffffffffffffffffffffffffffffffff021916908373ffffffffffffffffffffffffffffffffffffffff160217905550808273ffffffffffffffffffffffffffffffffffffffff16611e8f83611066565b73ffffffffffffffffffffffffffffffffffffffff167f8c5be1e5ebec7d5bd14f71427d1e84f3dd0314c0f7b2291e5b200ac8c7c3b92560405160405180910390a45050565b6001816000016000828254019250508190555050565b600073ffffffffffffffffffffffffffffffffffffffff168273ffffffffffffffffffffffffffffffffffffffff161415611f5b576040517f08c379a0000000000000000000000000000000000000000000000000000000008152600401611f529061373d565b60405180910390fd5b611f6481611da8565b15611fa4576040517f08c379a0000000000000000000000000000000000000000000000000000000008152600401611f9b9061361d565b60405180910390fd5b611fb060008383612926565b6001600360008473ffffffffffffffffffffffffffffffffffffffff1673ffffffffffffffffffffffffffffffffffffffff1681526020019081526020016000206000828254612000919061397d565b92505081905550816002600083815260200190815260200160002060006101000a81548173ffffffffffffffffffffffffffffffffffffffff021916908373ffffffffffffffffffffffffffffffffffffffff160217905550808273ffffffffffffffffffffffffffffffffffffffff16600073ffffffffffffffffffffffffffffffffffffffff167fddf252ad1be2c89b69c2b068fc378daa952ba7f163c4a11628f55a4df523b3ef60405160405180910390a46120c16000838361292b565b5050565b60006120d082611da8565b61210f576040517f08c379a00000000000000000000000000000000000000000000000000000000081526004016121069061367d565b60405180910390fd5b600061211a83611066565b90508073ffffffffffffffffffffffffffffffffffffffff168473ffffffffffffffffffffffffffffffffffffffff16148061218957508373ffffffffffffffffffffffffffffffffffffffff1661217184610959565b73ffffffffffffffffffffffffffffffffffffffff16145b8061219a57506121998185611b1e565b5b91505092915050565b8273ffffffffffffffffffffffffffffffffffffffff166121c382611066565b73ffffffffffffffffffffffffffffffffffffffff1614612219576040517f08c379a0000000000000000000000000000000000000000000000000000000008152600401612210906135fd565b60405180910390fd5b600073ffffffffffffffffffffffffffffffffffffffff168273ffffffffffffffffffffffffffffffffffffffff161415612289576040517f08c379a00000000000000000000000000000000000000000000000000000000081526004016122809061363d565b60405180910390fd5b612294838383612926565b61229f600082611e1c565b6001600360008573ffffffffffffffffffffffffffffffffffffffff1673ffffffffffffffffffffffffffffffffffffffff16815260200190815260200160002060008282546122ef9190613a5e565b925050819055506001600360008473ffffffffffffffffffffffffffffffffffffffff1673ffffffffffffffffffffffffffffffffffffffff1681526020019081526020016000206000828254612346919061397d565b92505081905550816002600083815260200190815260200160002060006101000a81548173ffffffffffffffffffffffffffffffffffffffff021916908373ffffffffffffffffffffffffffffffffffffffff160217905550808273ffffffffffffffffffffffffffffffffffffffff168473ffffffffffffffffffffffffffffffffffffffff167fddf252ad1be2c89b69c2b068fc378daa952ba7f163c4a11628f55a4df523b3ef60405160405180910390a461240583838361292b565b505050565b60008160405160200161241d9190613468565b604051602081830303815290604052805190602001209050919050565b6000600660009054906101000a900473ffffffffffffffffffffffffffffffffffffffff16905081600660006101000a81548173ffffffffffffffffffffffffffffffffffffffff021916908373ffffffffffffffffffffffffffffffffffffffff1602179055508173ffffffffffffffffffffffffffffffffffffffff168173ffffffffffffffffffffffffffffffffffffffff167f8be0079c531659141344cd1fd0a4f28419497f9722a3daafe3b4186f6b6457e060405160405180910390a35050565b8173ffffffffffffffffffffffffffffffffffffffff168373ffffffffffffffffffffffffffffffffffffffff16141561256f576040517f08c379a00000000000000000000000000000000000000000000000000000000081526004016125669061365d565b60405180910390fd5b80600560008573ffffffffffffffffffffffffffffffffffffffff1673ffffffffffffffffffffffffffffffffffffffff16815260200190815260200160002060008473ffffffffffffffffffffffffffffffffffffffff1673ffffffffffffffffffffffffffffffffffffffff16815260200190815260200160002060006101000a81548160ff0219169083151502179055508173ffffffffffffffffffffffffffffffffffffffff168373ffffffffffffffffffffffffffffffffffffffff167f17307eab39ab6107e8899845ad3d59bd9653f200f220920489ca2b5937696c31836040516126609190613545565b60405180910390a3505050565b6126788484846121a3565b61268484848484612930565b6126c3576040517f08c379a00000000000000000000000000000000000000000000000000000000081526004016126ba906135bd565b60405180910390fd5b50505050565b6126e3828260405180602001604052806000815250612ac7565b5050565b6060600c80546126f690613b52565b80601f016020809104026020016040519081016040528092919081815260200182805461272290613b52565b801561276f5780601f106127445761010080835404028352916020019161276f565b820191906000526020600020905b81548152906001019060200180831161275257829003601f168201915b5050505050905090565b606060008214156127c1576040518060400160405280600181526020017f30000000000000000000000000000000000000000000000000000000000000008152509050612921565b600082905060005b600082146127f35780806127dc90613bb5565b915050600a826127ec91906139d3565b91506127c9565b60008167ffffffffffffffff811115612835577f4e487b7100000000000000000000000000000000000000000000000000000000600052604160045260246000fd5b6040519080825280601f01601f1916602001820160405280156128675781602001600182028036833780820191505090505b5090505b6000851461291a576001826128809190613a5e565b9150600a8561288f9190613c2c565b603061289b919061397d565b60f81b8183815181106128d7577f4e487b7100000000000000000000000000000000000000000000000000000000600052603260045260246000fd5b60200101907effffffffffffffffffffffffffffffffffffffffffffffffffffffffffffff1916908160001a905350600a8561291391906139d3565b945061286b565b8093505050505b919050565b505050565b505050565b60006129518473ffffffffffffffffffffffffffffffffffffffff16612b22565b15612aba578373ffffffffffffffffffffffffffffffffffffffff1663150b7a0261297a611e14565b8786866040518563ffffffff1660e01b815260040161299c94939291906134f9565b602060405180830381600087803b1580156129b657600080fd5b505af19250505080156129e757506040513d601f19601f820116820180604052508101906129e49190612f9e565b60015b612a6a573d8060008114612a17576040519150601f19603f3d011682016040523d82523d6000602084013e612a1c565b606091505b50600081511415612a62576040517f08c379a0000000000000000000000000000000000000000000000000000000008152600401612a59906135bd565b60405180910390fd5b805181602001fd5b63150b7a0260e01b7bffffffffffffffffffffffffffffffffffffffffffffffffffffffff1916817bffffffffffffffffffffffffffffffffffffffffffffffffffffffff191614915050612abf565b600190505b949350505050565b612ad18383611eeb565b612ade6000848484612930565b612b1d576040517f08c379a0000000000000000000000000000000000000000000000000000000008152600401612b14906135bd565b60405180910390fd5b505050565b6000808273ffffffffffffffffffffffffffffffffffffffff163b119050919050565b6000612b58612b53846138dd565b6138b8565b90508083825260208201905082856020860282011115612b7757600080fd5b60005b85811015612ba75781612b8d8882612c43565b845260208401935060208301925050600181019050612b7a565b5050509392505050565b6000612bc4612bbf84613909565b6138b8565b905082815260208101848484011115612bdc57600080fd5b612be7848285613b10565b509392505050565b600081359050612bfe81614300565b92915050565b600082601f830112612c1557600080fd5b8135612c25848260208601612b45565b91505092915050565b600081359050612c3d81614317565b92915050565b600081359050612c528161432e565b92915050565b600081359050612c6781614345565b92915050565b600081519050612c7c81614345565b92915050565b600082601f830112612c9357600080fd5b8135612ca3848260208601612bb1565b91505092915050565b600081359050612cbb8161435c565b92915050565b600060208284031215612cd357600080fd5b6000612ce184828501612bef565b91505092915050565b60008060408385031215612cfd57600080fd5b6000612d0b85828601612bef565b9250506020612d1c85828601612bef565b9150509250929050565b600080600060608486031215612d3b57600080fd5b6000612d4986828701612bef565b9350506020612d5a86828701612bef565b9250506040612d6b86828701612cac565b9150509250925092565b60008060008060808587031215612d8b57600080fd5b6000612d9987828801612bef565b9450506020612daa87828801612bef565b9350506040612dbb87828801612cac565b925050606085013567ffffffffffffffff811115612dd857600080fd5b612de487828801612c82565b91505092959194509250565b600080600060608486031215612e0557600080fd5b6000612e1386828701612bef565b935050602084013567ffffffffffffffff811115612e3057600080fd5b612e3c86828701612c04565b9250506040612e4d86828701612cac565b9150509250925092565b60008060408385031215612e6a57600080fd5b6000612e7885828601612bef565b9250506020612e8985828601612c2e565b9150509250929050565b60008060408385031215612ea657600080fd5b6000612eb485828601612bef565b9250506020612ec585828601612cac565b9150509250929050565b600060208284031215612ee157600080fd5b6000612eef84828501612c2e565b91505092915050565b600060208284031215612f0a57600080fd5b6000612f1884828501612c43565b91505092915050565b60008060408385031215612f3457600080fd5b6000612f4285828601612c43565b925050602083013567ffffffffffffffff811115612f5f57600080fd5b612f6b85828601612c04565b9150509250929050565b600060208284031215612f8757600080fd5b6000612f9584828501612c58565b91505092915050565b600060208284031215612fb057600080fd5b6000612fbe84828501612c6d565b91505092915050565b600060208284031215612fd957600080fd5b6000612fe784828501612cac565b91505092915050565b612ff981613a92565b82525050565b61301061300b82613a92565b613bfe565b82525050565b61301f81613aa4565b82525050565b61302e81613ab0565b82525050565b61304561304082613ab0565b613c10565b82525050565b60006130568261393a565b6130608185613950565b9350613070818560208601613b1f565b61307981613d19565b840191505092915050565b600061308f82613945565b6130998185613961565b93506130a9818560208601613b1f565b6130b281613d19565b840191505092915050565b60006130c882613945565b6130d28185613972565b93506130e2818560208601613b1f565b80840191505092915050565b60006130fb601183613961565b915061310682613d37565b602082019050919050565b600061311e603283613961565b915061312982613d60565b604082019050919050565b6000613141602683613961565b915061314c82613daf565b604082019050919050565b6000613164602583613961565b915061316f82613dfe565b604082019050919050565b6000613187601c83613961565b915061319282613e4d565b602082019050919050565b60006131aa602483613961565b91506131b582613e76565b604082019050919050565b60006131cd601983613961565b91506131d882613ec5565b602082019050919050565b60006131f0602c83613961565b91506131fb82613eee565b604082019050919050565b6000613213601783613961565b915061321e82613f3d565b602082019050919050565b6000613236603883613961565b915061324182613f66565b604082019050919050565b6000613259600f83613961565b915061326482613fb5565b602082019050919050565b600061327c602a83613961565b915061328782613fde565b604082019050919050565b600061329f602983613961565b91506132aa8261402d565b604082019050919050565b60006132c2602083613961565b91506132cd8261407c565b602082019050919050565b60006132e5601183613961565b91506132f0826140a5565b602082019050919050565b6000613308601283613961565b9150613313826140ce565b602082019050919050565b600061332b602c83613961565b9150613336826140f7565b604082019050919050565b600061334e600583613972565b915061335982614146565b600582019050919050565b6000613371601483613961565b915061337c8261416f565b602082019050919050565b6000613394602083613961565b915061339f82614198565b602082019050919050565b60006133b7602f83613961565b91506133c2826141c1565b604082019050919050565b60006133da602183613961565b91506133e582614210565b604082019050919050565b60006133fd601f83613961565b91506134088261425f565b602082019050919050565b6000613420603183613961565b915061342b82614288565b604082019050919050565b6000613443601883613961565b915061344e826142d7565b602082019050919050565b61346281613b06565b82525050565b60006134748284612fff565b60148201915081905092915050565b600061348f8285613034565b60208201915061349f8284613034565b6020820191508190509392505050565b60006134bb82856130bd565b91506134c782846130bd565b91506134d282613341565b91508190509392505050565b60006020820190506134f36000830184612ff0565b92915050565b600060808201905061350e6000830187612ff0565b61351b6020830186612ff0565b6135286040830185613459565b818103606083015261353a818461304b565b905095945050505050565b600060208201905061355a6000830184613016565b92915050565b60006020820190506135756000830184613025565b92915050565b600060208201905081810360008301526135958184613084565b905092915050565b600060208201905081810360008301526135b6816130ee565b9050919050565b600060208201905081810360008301526135d681613111565b9050919050565b600060208201905081810360008301526135f681613134565b9050919050565b6000602082019050818103600083015261361681613157565b9050919050565b600060208201905081810360008301526136368161317a565b9050919050565b600060208201905081810360008301526136568161319d565b9050919050565b60006020820190508181036000830152613676816131c0565b9050919050565b60006020820190508181036000830152613696816131e3565b9050919050565b600060208201905081810360008301526136b681613206565b9050919050565b600060208201905081810360008301526136d681613229565b9050919050565b600060208201905081810360008301526136f68161324c565b9050919050565b600060208201905081810360008301526137168161326f565b9050919050565b6000602082019050818103600083015261373681613292565b9050919050565b60006020820190508181036000830152613756816132b5565b9050919050565b60006020820190508181036000830152613776816132d8565b9050919050565b60006020820190508181036000830152613796816132fb565b9050919050565b600060208201905081810360008301526137b68161331e565b9050919050565b600060208201905081810360008301526137d681613364565b9050919050565b600060208201905081810360008301526137f681613387565b9050919050565b60006020820190508181036000830152613816816133aa565b9050919050565b60006020820190508181036000830152613836816133cd565b9050919050565b60006020820190508181036000830152613856816133f0565b9050919050565b6000602082019050818103600083015261387681613413565b9050919050565b6000602082019050818103600083015261389681613436565b9050919050565b60006020820190506138b26000830184613459565b92915050565b60006138c26138d3565b90506138ce8282613b84565b919050565b6000604051905090565b600067ffffffffffffffff8211156138f8576138f7613cea565b5b602082029050602081019050919050565b600067ffffffffffffffff82111561392457613923613cea565b5b61392d82613d19565b9050602081019050919050565b600081519050919050565b600081519050919050565b600082825260208201905092915050565b600082825260208201905092915050565b600081905092915050565b600061398882613b06565b915061399383613b06565b9250827fffffffffffffffffffffffffffffffffffffffffffffffffffffffffffffffff038211156139c8576139c7613c5d565b5b828201905092915050565b60006139de82613b06565b91506139e983613b06565b9250826139f9576139f8613c8c565b5b828204905092915050565b6000613a0f82613b06565b9150613a1a83613b06565b9250817fffffffffffffffffffffffffffffffffffffffffffffffffffffffffffffffff0483118215151615613a5357613a52613c5d565b5b828202905092915050565b6000613a6982613b06565b9150613a7483613b06565b925082821015613a8757613a86613c5d565b5b828203905092915050565b6000613a9d82613ae6565b9050919050565b60008115159050919050565b6000819050919050565b60007fffffffff0000000000000000000000000000000000000000000000000000000082169050919050565b600073ffffffffffffffffffffffffffffffffffffffff82169050919050565b6000819050919050565b82818337600083830152505050565b60005b83811015613b3d578082015181840152602081019050613b22565b83811115613b4c576000848401525b50505050565b60006002820490506001821680613b6a57607f821691505b60208210811415613b7e57613b7d613cbb565b5b50919050565b613b8d82613d19565b810181811067ffffffffffffffff82111715613bac57613bab613cea565b5b80604052505050565b6000613bc082613b06565b91507fffffffffffffffffffffffffffffffffffffffffffffffffffffffffffffffff821415613bf357613bf2613c5d565b5b600182019050919050565b6000613c0982613c1a565b9050919050565b6000819050919050565b6000613c2582613d2a565b9050919050565b6000613c3782613b06565b9150613c4283613b06565b925082613c5257613c51613c8c565b5b828206905092915050565b7f4e487b7100000000000000000000000000000000000000000000000000000000600052601160045260246000fd5b7f4e487b7100000000000000000000000000000000000000000000000000000000600052601260045260246000fd5b7f4e487b7100000000000000000000000000000000000000000000000000000000600052602260045260246000fd5b7f4e487b7100000000000000000000000000000000000000000000000000000000600052604160045260246000fd5b6000601f19601f8301169050919050565b60008160601b9050919050565b7f596f7520657863656564206c696d69742e000000000000000000000000000000600082015250565b7f4552433732313a207472616e7366657220746f206e6f6e20455243373231526560008201527f63656976657220696d706c656d656e7465720000000000000000000000000000602082015250565b7f4f776e61626c653a206e6577206f776e657220697320746865207a65726f206160008201527f6464726573730000000000000000000000000000000000000000000000000000602082015250565b7f4552433732313a207472616e736665722066726f6d20696e636f72726563742060008201527f6f776e6572000000000000000000000000000000000000000000000000000000602082015250565b7f4552433732313a20746f6b656e20616c7265616479206d696e74656400000000600082015250565b7f4552433732313a207472616e7366657220746f20746865207a65726f2061646460008201527f7265737300000000000000000000000000000000000000000000000000000000602082015250565b7f4552433732313a20617070726f766520746f2063616c6c657200000000000000600082015250565b7f4552433732313a206f70657261746f7220717565727920666f72206e6f6e657860008201527f697374656e7420746f6b656e0000000000000000000000000000000000000000602082015250565b7f53616c65206973206e6f74207374617274656420796574000000000000000000600082015250565b7f4552433732313a20617070726f76652063616c6c6572206973206e6f74206f7760008201527f6e6572206e6f7220617070726f76656420666f7220616c6c0000000000000000602082015250565b7f4e6f742077686974656c69737465640000000000000000000000000000000000600082015250565b7f4552433732313a2062616c616e636520717565727920666f7220746865207a6560008201527f726f206164647265737300000000000000000000000000000000000000000000602082015250565b7f4552433732313a206f776e657220717565727920666f72206e6f6e657869737460008201527f656e7420746f6b656e0000000000000000000000000000000000000000000000602082015250565b7f4552433732313a206d696e7420746f20746865207a65726f2061646472657373600082015250565b7f457863656564206d617820737570706c79000000000000000000000000000000600082015250565b7f457863656564206d617820737570706c792e0000000000000000000000000000600082015250565b7f4552433732313a20617070726f76656420717565727920666f72206e6f6e657860008201527f697374656e7420746f6b656e0000000000000000000000000000000000000000602082015250565b7f2e6a736f6e000000000000000000000000000000000000000000000000000000600082015250565b7f4d6f6e6579206973206e6f7420656e6f75676821000000000000000000000000600082015250565b7f4f776e61626c653a2063616c6c6572206973206e6f7420746865206f776e6572600082015250565b7f4552433732314d657461646174613a2055524920717565727920666f72206e6f60008201527f6e6578697374656e7420746f6b656e0000000000000000000000000000000000602082015250565b7f4552433732313a20617070726f76616c20746f2063757272656e74206f776e6560008201527f7200000000000000000000000000000000000000000000000000000000000000602082015250565b7f5075626c6963206d696e74206973206e6f742073746172746564207965742100600082015250565b7f4552433732313a207472616e736665722063616c6c6572206973206e6f74206f60008201527f776e6572206e6f7220617070726f766564000000000000000000000000000000602082015250565b7f50726573616c65206973206e6f7420737570706f746564210000000000000000600082015250565b61430981613a92565b811461431457600080fd5b50565b61432081613aa4565b811461432b57600080fd5b50565b61433781613ab0565b811461434257600080fd5b50565b61434e81613aba565b811461435957600080fd5b50565b61436581613b06565b811461437057600080fd5b5056fea26469706673582212202470203284779b12433b95e52c725f8d0cd7435820531365bfa9e2d9e34c2bd364736f6c6343000804003368747470733a2f2f6b616e657373616e66742e6d7970696e6174612e636c6f75642f697066732f516d546f7676584637414365315554635761334a755475574c324a4a346e454c534579795753664d5450637473502f",
  "linkReferences": {},
  "deployedLinkReferences": {}
}